S012000043616C63756C61746F722E7372656308
S11300000C942A000C9447000C9447000C9447006D
S11300100C9447000C9447000C9447000C94470040
S11300200C9447000C9447000C9447000C94470030
S11300300C9447000C9447000C9447000C94470020
S11300400C9447000C9447000C9447000C94470010
S11300500C94470011241FBECFE5D8E0DEBFCDBF0E
S113006011E0A0E6B0E0EAE4FEE302C005900D92E0
S1130070AE37B107D9F711E0AEE7B1E001C01D9288
S1130080AE37B107E1F70E9449000C94231F0C948A
S11300900000CF93DF93CDB7DEB760970FB6F89427
S11300A0DEBF0FBECDBF0E94491184E40E949D10A3
S11300B019821A821B821C821D821E821F8218864C
S11300C099243324339422241B861C861D86092DEF
S11300D0AA24BB24650184E40E94B810182F682E5A
S11300E077242FEF62167104B1F37301002311F426
S11300F00E94CE113BE2E316F10479F04DE2E416DE
S1130100F10471F05FE2E516F10469F06AE2E616C3
S1130110F10461F57301C30108C07301C30105C093
S11301207301C30102C07301C3018B32910509F449
S11301305FC0812EC70105C07301C30102C07301F2
S1130140C3018D32910509F456C08F32910509F42B
S113015054C08A32910509F452C08134910509F4DE
S113016050C08D33910541F5C7014CC0812F0E94C9
S1130170A811C601B5012AE030E040E050E00E9439
S1130180AB1EAB01BC01C701C097A0E0B0E05C01AD
S11301906D01A40EB51EC61ED71E0F5F053061F299
S11301A071E4E716F10459F28DE3E816F10409F05D
S11301B092CF7301C301C5CF84E40E94B810282FE5
S11301C030E02B32310511F12D32310511F12F328E
S11301D0310511F12A32310511F12134310511F4BF
S11301E00C94420D2D33310539F77901882E19C04D
S11301F0812EC70107C0C70105C0C70103C0C701DD
S113020001C0C70181349105A9F00BC07901882E82
S113021008C07901882E05C07901882E02C07901B1
S1130220882E9DE3E916F10411F40C94340D8E2DFF
S11302300E94A811A1E4EA16F10411F40C94390DFA
S1130240F92C44245524320184E40E94B810082F68
S113025010E0188B0F870F3F1105B1F30B32110516
S113026049F00D32110531F00F32110519F00A323F
S1130270110539F40E94A811A22CBB84CC84DD841E
S11302802CC00134110509F10D331105E9F10E9467
S1130290A811C301B2012AE030E040E050E00E941E
S11302A0AB1EAB01BC01C801C0972C0166247724A6
S11302B0440E551E661E771EF3940FC0EF84F88813
S11302C0C7018D33910519F421C0EF84F88811E436
S11302D0E116F10469F40C943E0D0134110571F337
S11302E024E02F1508F0B0CFEF84F888C701E9CFD8
S11302F084E40E94B81090E08D33910561F081345C
S11303009105B1F70C943E0DEF84F8883DE3E316B4
S1130310F10409F0DCCEA114B104C104D10429F024
S1130320411451046104710491F40E94CE1180E6D9
S113033090E00E94BF114FEF59E668E141505040F0
S11303406040E1F700C000000E94CE11C0CE8DE3F2
S11303500E94A8115BE2851679F0581528F06AE22C
S1130360861609F06AC02EC07DE28716B9F08FE2C6
S1130370881609F062C04EC04A0C5B1C6C1C7D1CC4
S113038063015201EE24FF2487014982BA82CB82A1
S1130390DC82ED82FE820F8318874FC0D601C5012F
S11303A084199509A609B7096C017D0100E010E0E4
S11303B098018983DA82EB82FC820D831E832F836A
S11303C038873BC0A301920160E070E0CB01498211
S11303D03A834B835C836D837E838F8398872A2D36
S11303E03B2D4C2D5D2D692D792D892D992DA980BD
S11303F0BA80CB80DC80E92CF92C092D192D0E94C0
S1130400F51129833A834B835C836D837E838F83C9
S1130410988713C0C601B501A30192010E94CA1EA8
S113042059016A01EE24FF2487012983BA82CB8211
S1130430DC82ED82FE820F831887E9815A815A5C3F
S1130440932DBA805B1508F0992D99298B818B59CE
S1130450232DCB808C1508F0292D980F332D981758
S113046008F0392D232B892F9C819C53332DDC805C
S11304709D1508F0392D290F432D291708F0492D12
S1130480342B922F2D812150432DED802E1508F011
S1130490492D320F632D321708F0692D462B232F77
S11304A03E813150632DFE803F1508F0692D430FC6
S11304B0732D431708F0792D672B342F4F8141504A
S11304C0732D0F81401708F0792D640FF32D6417F5
S11304D008F0F92D7F2B462F68856150670F09F0CE
S11304E06FC1662309F5442309F06AC14423E1F48A
S11304F0332309F065C13323B9F4233008F060C114
S1130500223091F4993108F05BC1983169F4823753
S113051008F056C1813741F45B3108F051C15A31BA
S113052019F4EE2309F04CC129813A814B815C8195
S11305306D817E818F819885A92C0F2EFAECBF2EB8
S1130540F02D0F2EFAE9CF2EF02D0F2EFBE3DF2E28
S1130550F02DE92CF92C092D192D0E94C812822F97
S1130560805D0E94A81129813A814B815C816D8153
S11305707E818F8198850E940D192E873F87742E66
S1130580652E562E472E89879A87562D652D742DF4
S11305900F2EF1EEBF2EF02D0F2EF5EFCF2EF02DF6
S11305A00F2EF5E0DF2EF02D0E94C812822F805D01
S11305B00E94A8112E853F85472D562D652D742D3B
S11305C089859A850E940D192E873F87742E652E82
S11305D0562E472E89879A87562D652D742D0F2EFA
S11305E0F0E8AF2EF02D0F2EF6E9BF2EF02D0F2ED2
S11305F0F8E9CF2EF02DD92C0E94C812822F805DED
S11306000E94A8112E853F85472D562D652D742DEA
S113061089859A850E940D192E873F87742E652E31
S1130620562E472E89879A87562D652D742DAA2418
S11306306894A6F80F2EF2E4BF2EF02D0F2EFFE0E3
S1130640CF2EF02D0E94C812822F805D0E94A81127
S11306502E853F85472D562D652D742D89859A85C8
S11306600E940D192E873F87742E652E562E472E15
S113067089879A87562D652D742D0F2EF0EAAF2E9B
S1130680F02D0F2EF6E8BF2EF02DC32C0E94C812B9
S1130690822F805D0E94A8112E853F85472D562DFF
S11306A0652D742D89859A850E940D192E873F87A3
S11306B0742E652E562E472E89879A87562D652DC2
S11306C0742DAA246894A4F80F2EF7E2BF2EF02DFF
S11306D0C92C0E94C812822F805D0E94A8112E8509
S11306E03F85472D562D652D742D89859A850E9449
S11306F00D192E873F87742E652E562E472E898717
S11307009A87562D652D742D0F2EF8EEAF2EF02DF1
S11307100F2EF3E0BF2EF02D0E94C812822F805DB1
S11307200E94A8112E853F85472D562D652D742DC9
S113073089859A850E940D192E873F87742E652E10
S1130740562E472E89879A87562D652D742D0F2E88
S1130750F4E6AF2EF02DB92C0E94C812822F805DD2
S11307600E94A8112E853F85472D562D652D742D89
S113077089859A850E940D192E873F87742E652ED0
S1130780562E472E89879A87562D652D742D0F2E48
S1130790FAE0AF2EF02D0E94C812822F805D0E94D5
S11307A0A8112E853F85472D562D652D742D8985DD
S11307B09A850E940D19822F805D0E94A81187CC12
S11307C0E9815A81515E932D1A81511708F0992DB0
S11307D099298B81865F232D3B81831708F0292D6E
S11307E0980F332D981708F0392D232B892F9C81CE
S11307F09650332D4C81941708F0392D290F432D31
S1130800291708F0492D342B922F2D812150432D87
S11308106D81261708F0492D320F632D321708F029
S1130820692D462B232F3E813150632D7E8137174E
S113083008F0692D430F732D431708F0792D672BAA
S1130840342F4F814150732DAF814A1708F0792D11
S1130850640FF32D641708F0F92D7F2B462F68855C
S11308606150670F09F048C1662309F5442309F074
S113087043C14423E1F4332309F03EC13323B9F4E3
S1130880222309F039C1222391F4963308F034C1AC
S1130890953369F4853A08F02FC1843A41F45A3EFD
S11308A008F02AC1593E19F4EE2309F025C1298123
S11308B03A814B815C816D817E818F819885A92CE1
S11308C00F2EF1EEBF2EF02D0F2EF5EFCF2EF02DC3
S11308D00F2EF5E0DF2EF02DE92CF92C092D192D22
S11308E00E94C812822F805D0E94A81129813A813A
S11308F04B815C816D817E818F8198850E940D1969
S11309002E873F87742E652E562E472E89879A8709
S1130910562D652D742D0F2EF0E8AF2EF02D0F2ED1
S1130920F6E9BF2EF02D0F2EF8E9CF2EF02DD92C9D
S11309300E94C812822F805D0E94A8112E853F85D7
S1130940472D562D652D742D89859A850E940D1984
S11309502E873F87742E652E562E472E89879A87B9
S1130960562D652D742DAA246894A6F80F2EF2E452
S1130970BF2EF02D0F2EFFE0CF2EF02D0E94C812B7
S1130980822F805D0E94A8112E853F85472D562D0C
S1130990652D742D89859A850E940D192E873F87B0
S11309A0742E652E562E472E89879A87562D652DCF
S11309B0742D0F2EF0EAAF2EF02D0F2EF6E8BF2E79
S11309C0F02DC32C0E94C812822F805D0E94A811B2
S11309D02E853F85472D562D652D742D89859A8545
S11309E00E940D192E873F87742E652E562E472E92
S11309F089879A87562D652D742DAA246894A4F8A6
S1130A000F2EF7E2BF2EF02DC92C0E94C812822FA0
S1130A10805D0E94A8112E853F85472D562D652D9A
S1130A20742D89859A850E940D192E873F87742E0F
S1130A30652E562E472E89879A87562D652D742D3F
S1130A400F2EF8EEAF2EF02D0F2EF3E0BF2EF02D6B
S1130A500E94C812822F805D0E94A8112E853F85B6
S1130A60472D562D652D742D89859A850E940D1963
S1130A702E873F87742E652E562E472E89879A8798
S1130A80562D652D742D0F2EF4E6AF2EF02DB92CB6
S1130A900E94C812822F805D0E94A8112E853F8576
S1130AA0472D562D652D742D89859A850E940D1923
S1130AB02E873F87742E652E562E472E89879A8758
S1130AC0562D652D742D0F2EFAE0AF2EF02D0E94B9
S1130AD0C812822F805D0E94A8112E853F85472D64
S1130AE0562D652D742D89859A850E940D19822FA6
S1130AF0805D0E94A811EBCAE981E058932DB98169
S1130B00EB1708F0992D8A818759232DFA818F17C5
S1130B1008F0292D980F332D981708F0392D232B21
S1130B20892F9B819959332DAB809A1508F0392D63
S1130B30290F432D291708F0492D342B922F2C818E
S1130B402150432DBC802B1508F0492D320F532D15
S1130B50321708F0592D452B232F3D813150532D49
S1130B60CD803C1508F0592D430F632D431708F031
S1130B70692D562B342F4E814150632DDE804D1547
S1130B8008F0692D540F732D541708F0792D672B35
S1130B90452F5F815150732DEF805E1508F0792D3C
S1130BA0650FF32D651708F0F92D7F2B562F6885F7
S1130BB06150670F09F020C1662309F5552309F038
S1130BC01BC15523E1F4442309F016C14423B9F4AD
S1130BD0332309F011C1332391F4263008F00CC1FA
S1130BE0253069F49E3508F007C19D3541F48B34F6
S1130BF008F002C18A3419F4E13808F0FDC02981F3
S1130C003A814B815C816D817E818F8198850F2E25
S1130C10F0E8AF2EF02D0F2EF6E9BF2EF02D0F2E9B
S1130C20F8E9CF2EF02DD92CE92CF92C092D192D0A
S1130C300E94C812822F805D0E94A81129813A81E6
S1130C404B815C816D817E818F8198850E940D1915
S1130C502E873F87742E652E562E472E89879A87B6
S1130C60562D652D742DAA246894A6F80F2EF2E44F
S1130C70BF2EF02D0F2EFFE0CF2EF02D0E94C812B4
S1130C80822F805D0E94A8112E853F85472D562D09
S1130C90652D742D89859A850E940D192E873F87AD
S1130CA0742E652E562E472E89879A87562D652DCC
S1130CB0742D0F2EF0EAAF2EF02D0F2EF6E8BF2E76
S1130CC0F02DC32C0E94C812822F805D0E94A811AF
S1130CD02E853F85472D562D652D742D89859A8542
S1130CE00E940D192E873F87742E652E562E472E8F
S1130CF089879A87562D652D742DAA246894A4F8A3
S1130D000F2EF7E2BF2EF02DC92C0E94C812822F9D
S1130D10805D0E94A8112E853F85472D562D652D97
S1130D20742D89859A850E940D192E873F87742E0C
S1130D30652E562E472E89879A87562D652D742D3C
S1130D400F2EF8EEAF2EF02D0F2EF3E0BF2EF02D68
S1130D500E94C812822F805D0E94A8112E853F85B3
S1130D60472D562D652D742D89859A850E940D1960
S1130D702E873F87742E652E562E472E89879A8795
S1130D80562D652D742D0F2EF4E6AF2EF02DB92CB3
S1130D900E94C812822F805D0E94A8112E853F8573
S1130DA0472D562D652D742D89859A850E940D1920
S1130DB02E873F87742E652E562E472E89879A8755
S1130DC0562D652D742D0F2EFAE0AF2EF02D0E94B6
S1130DD0C812822F805D0E94A8112E853F85472D61
S1130DE0562D652D742D89859A850E940D19822FA3
S1130DF0805D0E94A8116BC9E981E054932DF980AC
S1130E00EF1508F0992D8A818354232D0A818017C8
S1130E1008F0292D980F332D981708F0392D232B1E
S1130E20892F9B819051332D1B81911708F0392D07
S1130E30290F432D291708F0492D342B922F2C818B
S1130E402150432D5C81251708F0492D320F532D75
S1130E50321708F0592D452B232F3D813150532D46
S1130E606D81361708F0592D430F632D431708F091
S1130E70692D562B342F4E814150632D7E814717A7
S1130E8008F0692D540F732D541708F0792D672B32
S1130E90452F5F815150732DAF815A1708F0792D7A
S1130EA0650FF32D651708F0F92D7F2B562F6885F4
S1130EB06150670F09F0F9C0662309F5552309F05D
S1130EC0F4C05523E1F4442309F0EFC04423B9F4FA
S1130ED0332309F0EAC0332391F4222309F0E5C057
S1130EE0222369F49A3808F0E0C0993841F4853532
S1130EF008F0DBC0843519F4E03408F0D6C0298149
S1130F003A814B815C816D817E818F819885AA2491
S1130F106894A6F80F2EF2E4BF2EF02D0F2EFFE0FA
S1130F20CF2EF02DD92CE92CF92C092D192D0E9446
S1130F30C812822F805D0E94A81129813A814B81B9
S1130F405C816D817E818F8198850E940D192E8729
S1130F503F87742E652E562E472E89879A87562DE5
S1130F60652D742D0F2EF0EAAF2EF02D0F2EF6E81E
S1130F70BF2EF02DC32C0E94C812822F805D0E94C8
S1130F80A8112E853F85472D562D652D742D8985F5
S1130F909A850E940D192E873F87742E652E562E32
S1130FA0472E89879A87562D652D742DAA24689417
S1130FB0A4F80F2EF7E2BF2EF02DC92C0E94C81200
S1130FC0822F805D0E94A8112E853F85472D562DC6
S1130FD0652D742D89859A850E940D192E873F876A
S1130FE0742E652E562E472E89879A87562D652D89
S1130FF0742D0F2EF8EEAF2EF02D0F2EF3E0BF2E32
S1131000F02D0E94C812822F805D0E94A8112E85A7
S11310103F85472D562D652D742D89859A850E940F
S11310200D192E873F87742E652E562E472E8987DD
S11310309A87562D652D742D0F2EF4E6AF2EF02DC4
S1131040B92C0E94C812822F805D0E94A8112E859F
S11310503F85472D562D652D742D89859A850E94CF
S11310600D192E873F87742E652E562E472E89879D
S11310709A87562D652D742D0F2EFAE0AF2EF02D84
S11310800E94C812822F805D0E94A8112E853F8580
S1131090472D562D652D742D89859A850E940D192D
S11310A0822F805D0E94A81112C8E981E05A932D15
S11310B0B981EB1708F0992D8A818758232DFA817D
S11310C08F1708F0292D980F332D981708F0392D14
S11310D0232B892F9B819250332DAB809A1508F0D6
S11310E0392D290F432D291708F0492D342B922F20
S11310F02C812150432DBC802B1508F0492D320F33
S1131100532D321708F0592D452B232F3D81315093
S1131110532DCD803C1508F0592D430F632D4317F3
S113112008F0692D562B342F4E814150632DDE80FB
S11311304D1508F0692D540F732D541708F0792DAF
S1131140672B452F5F815150732DEF805E1508F09A
S1131150792D650FF32D651708F0F92D7F2B562F88
S113116068856150670F09F0D4C0662309F55523DB
S113117009F0CFC05523E1F4442309F0CAC0442345
S1131180B9F4332309F0C5C0332391F4222309F0C1
S1131190C0C0222369F49E3008F0BBC09D3041F4E6
S11311A08C3B08F0B6C08B3B19F4E03A08F0B1C0B0
S11311B029813A814B815C816D817E818F81988503
S11311C00F2EF0EAAF2EF02D0F2EF6E8BF2EF02DE5
S11311D0C32CD92CE92CF92C092D192D0E94C812E5
S11311E0822F805D0E94A81129813A814B815C8104
S11311F06D817E818F8198850E940D192E873F878E
S1131200742E652E562E472E89879A87562D652D66
S1131210742DAA246894A4F80F2EF7E2BF2EF02DA3
S1131220C92C0E94C812822F805D0E94A8112E85AD
S11312303F85472D562D652D742D89859A850E94ED
S11312400D192E873F87742E652E562E472E8987BB
S11312509A87562D652D742D0F2EF8EEAF2EF02D96
S11312600F2EF3E0BF2EF02D0E94C812822F805D56
S11312700E94A8112E853F85472D562D652D742D6E
S113128089859A850E940D192E873F87742E652EB5
S1131290562E472E89879A87562D652D742D0F2E2D
S11312A0F4E6AF2EF02DB92C0E94C812822F805D77
S11312B00E94A8112E853F85472D562D652D742D2E
S11312C089859A850E940D192E873F87742E652E75
S11312D0562E472E89879A87562D652D742D0F2EED
S11312E0FAE0AF2EF02D0E94C812822F805D0E947A
S11312F0A8112E853F85472D562D652D742D898582
S11313009A850E940D19822F805D0E94A8110C9469
S11313106700E981E051932DF980EF1508F0992DCC
S11313208A818852232D0A81801708F0292D980F6D
S1131330332D981708F0392D232B892F9B81915039
S1131340332D1B81911708F0392D290F432D2917AF
S113135008F0492D342B922F2C812150432D5C8190
S1131360251708F0492D320F532D321708F0592D47
S1131370452B232F3D813150532D6D81361708F0B5
S1131380592D430F632D431708F0692D562B342F25
S11313904E814150632D7E81471708F0692D540F0B
S11313A0732D541708F0792D672B452F5F81515009
S11313B0732DAF815A1708F0792D650FF32D65173A
S11313C008F0F92D7F2B562F68856150670F09F0BF
S11313D0B0C0662309F5552309F0ABC05523E1F4E9
S11313E0442309F0A6C04423B9F4332309F0A1C06F
S11313F0332391F4222309F09CC0222369F4923010
S113140008F097C0913041F4803608F092C08F35CF
S113141019F4E03908F08DC029813A814B815C814F
S11314206D817E818F819885AA246894A4F80F2EFB
S1131430F7E2BF2EF02DC92CD92CE92CF92C092D5B
S1131440192D0E94C812822F805D0E94A811298143
S11314503A814B815C816D817E818F8198850E9468
S11314600D192E873F87742E652E562E472E898799
S11314709A87562D652D742D0F2EF8EEAF2EF02D74
S11314800F2EF3E0BF2EF02D0E94C812822F805D34
S11314900E94A8112E853F85472D562D652D742D4C
S11314A089859A850E940D192E873F87742E652E93
S11314B0562E472E89879A87562D652D742D0F2E0B
S11314C0F4E6AF2EF02DB92C0E94C812822F805D55
S11314D00E94A8112E853F85472D562D652D742D0C
S11314E089859A850E940D192E873F87742E652E53
S11314F0562E472E89879A87562D652D742D0F2ECB
S1131500FAE0AF2EF02D0E94C812822F805D0E9457
S1131510A8112E853F85472D562D652D742D89855F
S11315209A850E940D19822F805D0E94A8110C9447
S11315306700E981E85E932DB981EB1708F0992DD6
S11315408A818450232DFA818F1708F0292D980F52
S1131550332D981708F0392D232B892F9B81915017
S1131560332DAB809A1508F0392D290F432D2917F7
S113157008F0492D342B922F2C812150432DBC800F
S11315802B1508F0492D320F532D321708F0592D21
S1131590452B232F3D813150532DCD803C1508F030
S11315A0592D430F632D431708F0692D562B342F03
S11315B04E814150632DDE804D1508F0692D540F86
S11315C0732D541708F0792D672B452F5F815150E7
S11315D0732DEF805E1508F0792D650FF32D6517D7
S11315E008F0F92D7F2B562F68856150670F09F09D
S11315F08EC0662309F5552309F089C05523E1F40B
S1131600442309F084C04423B9F4332309F07FC090
S1131610332391F4222309F07AC0222369F4992315
S113162009F075C0992341F4843208F070C0833204
S113163019F4E83208F06BC029813A814B815C814E
S11316406D817E818F8198850F2EF8EEAF2EF02D5F
S11316500F2EF3E0BF2EF02DC92CD92CE92CF92C38
S1131660092D192D0E94C812822F805D0E94A81195
S113167029813A814B815C816D817E818F8198853E
S11316800E940D192E873F87742E652E562E472EE5
S113169089879A87562D652D742D0F2EF4E6AF2E6B
S11316A0F02DB92C0E94C812822F805D0E94A811CF
S11316B02E853F85472D562D652D742D89859A8558
S11316C00E940D192E873F87742E652E562E472EA5
S11316D089879A87562D652D742D0F2EFAE0AF2E2B
S11316E0F02D0E94C812822F805D0E94A8112E85C1
S11316F03F85472D562D652D742D89859A850E9429
S11317000D19822F805D0E94A8110C946700E98155
S1131710E456932DF980EF1508F0992D8A818150B4
S1131720232D0A81801708F0292D980F332D98173F
S113173008F0392D232B892F9B819150332D1B8148
S1131740911708F0392D290F432D291708F0492D39
S1131750342B922F2C812150432D5C81251708F0C6
S1131760492D320F532D321708F0592D452B232FB5
S11317703D813150532D6D81361708F0592D430F9B
S1131780632D431708F0692D562B342F4E81415099
S1131790632D7E81471708F0692D540F732D54175C
S11317A008F0792D672B452F5F815150732DAF8140
S11317B05A1708F0792D650FF32D651708F0F92DE8
S11317C07F2B562F68856150670F09F06BC0662325
S11317D009F5552309F066C05523E1F4442309F0C3
S11317E061C04423B9F4332309F05CC0332391F47A
S11317F0222309F057C0222369F4992309F052C027
S1131800992341F4843008F04DC0833019F4E4384E
S113181008F048C029813A814B815C816D817E81C9
S11318208F8198850F2EF4E6AF2EF02DB92CC92C9C
S1131830D92CE92CF92C092D192D0E94C812822FBC
S1131840805D0E94A81129813A814B815C816D8160
S11318507E818F8198850E940D192E873F87742E73
S1131860652E562E472E89879A87562D652D742D01
S11318700F2EFAE0AF2EF02D0E94C812822F805D49
S11318800E94A8112E853F85472D562D652D742D58
S113189089859A850E940D19822F805D0E94A81166
S11318A00C946700E981EA50932DB981EB1708F095
S11318B0992D8A818150232DFA818F1708F0292DC3
S11318C0980F332D981708F0392D232B892F9B81DE
S11318D09150332DAB809A1508F0392D290F432DE3
S11318E0291708F0492D342B922F2C812150432D98
S11318F0BC802B1508F0492D320F532D321708F0F8
S1131900592D452B232F3D813150532DCD803C152E
S113191008F0592D430F632D431708F0692D562BFA
S1131920342F4E814150632DDE804D1508F0692D12
S1131930540F732D541708F0792D672B452F5F81B1
S11319405150732DEF805E1508F0792D650FF32D3E
S1131950651708F0F92D7F2B562F68856150670FA6
S113196009F046C06623D9F4552309F041C0552334
S1131970B1F44423E9F5442391F43323C9F5332323
S113198071F42223A9F5222351F4992389F599238B
S113199031F4882369F5882311F4EA3548F529815F
S11319A03A814B815C816D817E818F8198850F2E78
S11319B0FAE0AF2EF02DB92CC92CD92CE92CF92C36
S11319C0092D192D0E94C812822F805D0E94A81132
S11319D029813A814B815C816D817E818F819885DB
S11319E00E940D19822F805D0E94A8110C9467003B
S11319F0F884FF2011F00C946700FF2079F51F8113
S1131A00112311F00C946700112341F53E81332317
S1131A1011F00C946700332309F55D81552311F00F
S1131A200C9467005523D1F47C81772311F00C9436
S1131A306700772399F49B81992311F00C94670034
S1131A40992361F4BA81BB2311F00C946700BB2382
S1131A5029F4F981FA3010F00C9467008981805DD3
S1131A600E94A8110C9467004424552432010C945C
S1131A7086014424552432010C9467010E94CE113E
S1131A800C9467007901882E4424552432010C9467
S1131A906701843409F471C0853448F4823499F1BF
S1131AA0833408F04DC0813409F083C00FC08236FE
S1131AB051F1833620F4813609F07BC007C08336A8
S1131AC009F43EC0843609F074C057C0413069F44B
S1131AD02AB381E090E0AC0102C0440F551F6A951F
S1131AE0E2F7BA01622B6ABB08952AB381E090E061
S1131AF0AC0102C0440F551F6A95E2F7BA01609524
S1131B0062236ABB0895413069F427B381E090E011
S1131B10AC0102C0440F551F6A95E2F7BA01622B6B
S1131B2067BB089527B381E090E0AC0102C0440F85
S1131B30551F6A95E2F7BA016095622367BB089561
S1131B40413069F424B381E090E0AC0102C0440F59
S1131B50551F6A95E2F7BA01622B64BB089524B35A
S1131B6081E090E0AC0102C0440F551F6A95E2F792
S1131B70BA016095622364BB0895413069F421B3CE
S1131B8081E090E0AC0102C0440F551F6A95E2F772
S1131B90BA01622B61BB089521B381E090E0AC01EE
S1131BA002C0440F551F6A95E2F7BA01609562239B
S1131BB061BB0895843409F471C0853448F48234D7
S1131BC099F1833408F04DC0813409F083C00FC00B
S1131BD0823651F1833620F4813609F07BC007C088
S1131BE0833609F43EC0843609F074C057C04130CE
S1131BF069F42BB381E090E0AC0102C0440F551F9F
S1131C006A95E2F7BA01622B6BBB08952BB381E0AE
S1131C1090E0AC0102C0440F551F6A95E2F7BA0187
S1131C20609562236BBB0895413069F428B381E069
S1131C3090E0AC0102C0440F551F6A95E2F7BA0167
S1131C40622B68BB089528B381E090E0AC0102C028
S1131C50440F551F6A95E2F7BA016095622368BB89
S1131C600895413069F425B381E090E0AC0102C0ED
S1131C70440F551F6A95E2F7BA01622B65BB0895BC
S1131C8025B381E090E0AC0102C0440F551F6A9572
S1131C90E2F7BA016095622365BB0895413069F4A7
S1131CA022B381E090E0AC0102C0440F551F6A9555
S1131CB0E2F7BA01622B62BB089522B381E090E09F
S1131CC0AC0102C0440F551F6A95E2F7BA01609552
S1131CD0622362BB0895843409F43DC0853440F422
S1131CE08234F9F0833450F5813409F040C00CC0DB
S1131CF08236B9F0833618F48136C9F505C08336C7
S1131D00E9F08436A1F527C02BB381E090E0AC0163
S1131D1002C0440F551F6A95E2F7BA0162276BBBF4
S1131D20089528B381E090E0AC0102C0440F551F30
S1131D306A95E2F7BA01622768BB089525B381E08A
S1131D4090E0AC0102C0440F551F6A95E2F7BA0156
S1131D50622765BB089522B381E090E0AC0102C024
S1131D60440F551F6A95E2F7BA01622762BB0895D2
S1131D70843409F44EC0853440F4823431F1833420
S1131D80B0F5813409F057C00EC08236F1F08336C5
S1131D9020F4813609F04FC006C0833641F1843601
S1131DA009F049C036C029B381E090E0062E02C094
S1131DB0880F991F0A94E2F730E08223932302C02C
S1131DC0959587956A95E2F7089526B381E090E0AA
S1131DD0062E02C0880F991F0A94E2F730E082238E
S1131DE0932302C0959587956A95E2F7089523B3E6
S1131DF081E090E0062E02C0880F991F0A94E2F752
S1131E0030E08223932302C0959587956A95E2F783
S1131E10089520B381E090E0062E02C0880F991F38
S1131E200A94E2F730E08223932302C095958795C4
S1131E306A95E2F7089580E008958434D9F08534F2
S1131E4038F4823499F0833498F48134A1F40CC0CA
S1131E50823661F0833618F4813669F405C083361E
S1131E6039F0843641F406C06ABB089567BB08950F
S1131E7064BB089561BB08958434D9F0853438F483
S1131E80823499F0833498F48134A1F40CC08236FE
S1131E9061F0833618F4813669F405C0833639F06D
S1131EA0843641F406C06BBB089568BB089565BBD6
S1131EB0089562BB08958434D9F0853438F48234AB
S1131EC099F0833498F48134A9F40CC0823661F01B
S1131ED0833618F4813671F405C0833639F08436BC
S1131EE049F406C089B3089586B3089583B3089569
S1131EF080B3089580E00895843409F1853438F47A
S1131F008234A9F08334B8F48134E1F40CC082360D
S1131F1071F0833618F48136A9F405C0833659F07C
S1131F20843681F40CC08BB380958BBB089588B341
S1131F30809588BB089585B3809585BB089582B349
S1131F40809582BB0895843409F471C0853448F4C3
S1131F50823499F1833408F04DC0813409F083C090
S1131F600FC0823651F1833620F4813609F07BC0EC
S1131F7007C0833609F43EC0843609F074C057C0E4
S1131F80413069F42BB381E090E0AC0102C0440F0E
S1131F90551F6A95E2F7BA01622B6BBB08952BB308
S1131FA081E090E0AC0102C0440F551F6A95E2F74E
S1131FB0BA01609562236BBB0895413069F428B37C
S1131FC081E090E0AC0102C0440F551F6A95E2F72E
S1131FD0BA01622B68BB089528B381E090E0AC019C
S1131FE002C0440F551F6A95E2F7BA016095622357
S1131FF068BB0895413069F425B381E090E0AC01F9
S113200002C0440F551F6A95E2F7BA01622B65BB03
S1132010089525B381E090E0AC0102C0440F551F40
S11320206A95E2F7BA016095622365BB0895413071
S113203069F422B381E090E0AC0102C0440F551F63
S11320406A95E2F7BA01622B62BB089522B381E07C
S113205090E0AC0102C0440F551F6A95E2F7BA0143
S11320606095622362BB08956F70843451F18534A6
S113207038F48234C1F08334E8F4813441F50CC07F
S1132080823689F0833618F4813609F505C0833623
S113209089F08436E1F415C08BB3807F8BBB8BB39E
S11320A0682B6BBB089588B3807F88BB88B3682B8B
S11320B068BB089585B3807F85BB85B3682B65BBFA
S11320C0089582B3807F82BB82B3682B62BB08957C
S11320D06295607F843451F1853438F48234C1F0E0
S11320E08334E8F4813441F50CC0823689F08336B8
S11320F018F4813609F505C0833689F08436E1F495
S113210015C08BB38F708BBB8BB3682B6BBB0895DF
S113211088B38F7088BB88B3682B68BB089585B378
S11321208F7085BB85B3682B65BB089582B38F70B0
S113213082BB82B3682B62BB0895CF93C82F6FE034
S11321400E941D0F8C2F64E041E00E94A30F8C2F8E
S113215065E041E00E94A30F8C2F66E041E00E94FD
S1132160A30F8C2F67E041E00E94A30FCF91089545
S1132170CF92DF92FF920F931F93CF93DF93CDB74C
S1132180DEB760970FB6F894DEBF0FBECDBFF82E52
S1132190DE011196EEE6F0E080E101900D928150AF
S11321A0E1F7CC24DD248F2D6FE00E9434108F2DB5
S11321B06C2D40E00E94DA0D10E0012F0C5F8F2D92
S11321C0602F0E94B80E8823B9F48F2D602F0E94CF
S11321D0B80E8823D1F3F601EE0FFF1FEE0FFF1F99
S11321E0E10FF11D81E090E08C0F9D1FE80FF91FB6
S11321F080818F3F21F00BC01F5F1430F1F60894EB
S1132200C11CD11C94E0C916D10469F68FEF609605
S11322100FB6F894DEBF0FBECDBFDF91CF911F91F3
S11322200F91FF90DF90CF90089582E460E041E049
S11322300E94DA0D8FE99FE00197F1F700C00000DA
S113224082E460E040E00E94DA0D8FE99FE00197AC
S1132250F1F700C000000895CF93C82F82E461E035
S113226040E00E94DA0D6C2F62956F7081E40E9449
S113227068100E94151181E46C2F0E9468100E945E
S113228015118FEC97E00197F1F700C00000CF9192
S113229008958FEF91EEA4E081509040A040E1F7C3
S11322A000C0000081E464E041E00E94490D81E443
S11322B065E041E00E94490D81E466E041E00E944E
S11322C0490D81E467E041E00E94490D82E460E049
S11322D041E00E94490D82E461E041E00E94490D21
S11322E082E462E041E00E94490D82E462E040E061
S11322F00E94DA0D82E00E942C11AFE1BEE4119736
S1132300F1F700C0000088E20E942C118FEC97E0E6
S11323100197F1F700C000008EE00E942C11AFEC91
S1132320B7E01197F1F700C0000081E00E942C1182
S11323308FE19EE40197F1F700C0000086E00E945F
S11323402C11AFECB7E01197F1F700C0000008952D
S1132350CF93C82F82E461E041E00E94DA0D6C2F34
S113236062956F7081E40E9468100E94151181E4E7
S11323706C2F0E9468100E941511CF910895CF937D
S1132380DF93EC018881882331F021960E94A81103
S113239089918823D9F7DF91CF91089581E00E9434
S11323A02C118FE19EE40197F1F700C0000008951D
S11323B0982F9150923068F4693258F4662349F0AA
S11323C0813019F4862F815802C0862F81540E94CF
S11323D02C110895803420F080E80E942C11089577
S11323E080648F770E942C110895A0E3B0E0EBEF96
S11323F0F1E10C94EE1E298F3A8F4B8F5C8F6D8F19
S11324007E8F8F8F98A3A98ABA8ACB8ADC8AED8AB9
S1132410FE8A0F8B188F098D1A8D2B8D3C8D09A385
S11324201AA32BA33CA3680179018FEF9FEFA0E0CF
S1132430B0E0C822D922EA22FB22890122273327CD
S113244009A71AA72BA73CA709891A892B893C89B4
S11324500DA31EA32FA338A748015901882299224E
S1132460AA22BB22290166247724C501B401A7014D
S113247096010E94AB1E6DA77EA78FA798ABC301E0
S1132480B2010E94AB1E6B017C01C501B40129A5F8
S11324903AA54BA55CA50E94AB1E4B015C01C30190
S11324A0B2010E94AB1EAB01BC01C80CD91CEA1CD2
S11324B0FB1C0DA51EA52FA538A9C901AA27BB275A
S11324C0C80ED91EEA1EFB1EC814D904EA04FB0474
S11324D020F4405050406F4F7F4FC701AA27BB27BD
S11324E0840F951FA61FB71F8D839E83AF83B88764
S11324F07601DD24CC244DA55EA56FA578A9607076
S11325007070C40ED51EE61EF71EC982DA82EB82F5
S1132510FC821C2D0A818B804C808D878E818E8756
S11325208F818F878885888B2D893E894F89588D27
S113253069A17AA18BA19CA10E94AB1E6B017C01B5
S11325402D8D3E8D4F8D58A16DA17EA18FA198A593
S11325500E94AB1EDC01CB01C80ED91EEA1EFB1E75
S11325608D859E85AF85B8898C0D9D1DAE1DBF1DC3
S11325708D879E87AF87B88B682F7E85212F302F5C
S1132580482D542D8F859889E096E0E10C940A1F1C
S1132590A4E3B0E0EEECF2E10C94ED1E298B3A8B4F
S11325A04B8B5C8B6D8B7E8B8F8B988FA986BA86B9
S11325B0CB86DC86ED86FE860F87188B89849A8409
S11325C0AB84BC848D859E85AF85B88909891A89B9
S11325D02B893C890DA31EA32FA338A7CD88DE88A1
S11325E0EF88F88C0097A105B10509F0B5C3C814AC
S11325F0D904EA04FB0408F04DC110E0811610E090
S1132600910611E0A10610E0B10658F42FEF8216EE
S11326109104A104B10409F090F480E090E0DC019D
S113262017C030E0831630E0930630E0A30631E0B3
S1132630B30650F480E190E0A0E0B0E009C088E087
S113264090E0A0E0B0E004C088E190E0A0E0B0E059
S1132650B501A401082E04C0769567955795479552
S11326600A94D2F7FA01E258FF4F208140E250E089
S113267060E070E0481B590B6A0B7B0B421B51094D
S1132680610971094115510561057105A1F1042E16
S113269004C0880C991CAA1CBB1C0A94D2F797018D
S11326A08601042E04C0000F111F221F331F0A9439
S11326B0D2F780E290E0841B950BCDA0DEA0EFA0C2
S11326C0F8A404C0F694E794D794C7948A95D2F7F3
S11326D0C02AD12AE22AF32A0DA11EA12FA138A5CE
S11326E004C0000F111F221F331F4A95D2F70DA3F8
S11326F01EA32FA338A725016624772495018401FE
S11327002070307009A31AA32BA33CA3C701B60100
S1132710A30192010E94CA1E2D8F3E8F4F8F58A392
S1132720698F7A8F8B8F9C8FC701B601A3019201A9
S11327300E94CA1ECA01B90129A13AA14BA15CA1F8
S11327400E94AB1EAB01BC01098D1A8D2B8D3C8DF3
S11327507801DD24CC240DA11EA12FA138A5C90127
S1132760AA27BB27C82AD92AEA2AFB2A0D8D1E8D3F
S11327702F8D38A1C416D506E606F70638F50150A4
S1132780104020403040098F1A8F2B8F3C8FC80C8B
S1132790D91CEA1CFB1CC814D904EA04FB04D0F0BD
S11327A0C416D506E606F706A8F40D8D1E8D2F8DEA
S11327B038A10250104020403040098F1A8F2B8FCF
S11327C03C8FC80CD91CEA1CFB1C04C0098F1A8F4F
S11327D02B8F3C8FC41AD50AE60AF70AC701B60143
S11327E0A30192010E94CA1E2D8F3E8F4F8F58A3C2
S11327F069A77AA78BA79CA7C701B601A301920179
S11328000E94CA1ECA01B90129A13AA14BA15CA127
S11328100E94AB1E6B017C0149A55AA56BA57CA542
S11328209A01112700274DA15EA16FA178A56070C0
S11328307070042B152B262B372B8D8D9E8DAF8D11
S1132840B8A10C151D052E053F05C0F40197A1097B
S1132850B109080D191D2A1D3B1D081519052A0566
S11328603B0560F00C151D052E053F0538F48D8DD4
S11328709E8DAF8DB8A10297A109B109098D1A8D5A
S11328802B8D3C8D7801DD24CC24C82AD92AEA2A50
S1132890FB2AA5C481149104A104B10451F461E09C
S11328A070E080E090E0A50194010E94CA1E4901F5
S11328B05A0110E0811610E0910611E0A10610E023
S11328C0B10658F42FEF82169104A104B10409F063
S11328D090F480E090E0DC0117C030E0831630E033
S11328E0930630E0A30631E0B30650F480E190E0B3
S11328F0A0E0B0E009C088E090E0A0E0B0E004C04F
S113290088E190E0A0E0B0E0B501A401082E04C085
S113291076956795579547950A94D2F7FA01E25848
S1132920FF4F2081AC01BD01420F511D611D711D7E
S113293080E290E0A0E0B0E0841B950BA60BB70BFF
S113294051F4C818D908EA08FB08F1E04F2E512CBD
S1132950612C712C24C1082E04C0880C991CAA1C5B
S1132960BB1C0A94D2F797018601042E04C0369545
S11329702795179507950A94D2F709A31AA32BA3B1
S11329803CA397018601082E04C0000F111F221FCB
S1132990331F0A94D2F70D8F1E8F2F8F38A30DA1EA
S11329A01EA12FA138A504C0369527951795079524
S11329B04A95D2F7B901A8010D8D1E8D2F8D38A12E
S11329C0042B152B262B372B0D8F1E8F2F8F38A3FF
S11329D00DA11EA12FA138A504C0000F111F221F95
S11329E0331F8A95D2F70DA31EA32FA338A7250161
S11329F066247724950184012070307009A71AA7F2
S1132A002BA73CA769A17AA18BA19CA1A301920148
S1132A100E94CA1E298F3A8F4B8F5C8F6B017C01F9
S1132A2069A17AA18BA19CA1A30192010E94CA1E53
S1132A30CA01B90129A53AA54BA55CA50E94AB1E04
S1132A40AB01BC017601DD24CC240D8D1E8D2F8DB0
S1132A5038A1C901AA27BB27C82AD92AEA2AFB2AEE
S1132A60098D1A8D2B8D3C8DC416D506E606F70606
S1132A7038F5015010402040304009A31AA32BA37D
S1132A803CA3C80CD91CEA1CFB1CC814D904EA04D6
S1132A90FB04D0F0C416D506E606F706A8F4098DA3
S1132AA01A8D2B8D3C8D025010402040304009A3DC
S1132AB01AA32BA33CA3C80CD91CEA1CFB1C04C0FE
S1132AC009A31AA32BA33CA3C41AD50AE60AF70A3E
S1132AD0C701B601A30192010E94CA1E298F3A8F31
S1132AE04B8F5C8F6DA77EA78FA798ABC701B601EC
S1132AF0A30192010E94CA1ECA01B90129A53AA5DF
S1132B004BA55CA50E94AB1E8B019C014DA55EA547
S1132B106FA578A9DA01992788274D8D5E8D6F8D71
S1132B2078A160707070842B952BA62BB72B498DE0
S1132B305A8D6B8D7C8D80179107A207B307F0F433
S1132B404150504060407040880D991DAA1DBB1D26
S1132B5088159905AA05BB0588F080179107A20777
S1132B60B30760F4498D5A8D6B8D7C8D4250504073
S1132B7060407040880D991DAA1DBB1D6C017D012C
S1132B80C01AD10AE20AF30A09A11AA12BA13CA195
S1132B90380155244424442A552A662A772A850173
S1132BA0222733270D8F1E8F2F8F38A39501840181
S1132BB02070307009A71AA72BA73CA7C701B6013C
S1132BC02D8D3E8D4F8D58A10E94CA1E298F3A8F9C
S1132BD04B8F5C8F69A37AA38BA39CA3C701B60117
S1132BE02D8D3E8D4F8D58A10E94CA1ECA01B90178
S1132BF029A53AA54BA55CA50E94AB1EAB01BC015F
S1132C0009A11AA12BA13CA17801DD24CC240DA19A
S1132C101EA12FA138A5C901AA27BB27C82AD92AD2
S1132C20EA2AFB2A098D1A8D2B8D3C8DC416D506F4
S1132C30E606F70638F5015010402040304009A35D
S1132C401AA32BA33CA3C80CD91CEA1CFB1CC81454
S1132C50D904EA04FB04D0F0C416D506E606F70648
S1132C60A8F4098D1A8D2B8D3C8D02501040204004
S1132C70304009A31AA32BA33CA3C80CD91CEA1CFB
S1132C80FB1C04C009A31AA32BA33CA3C41AD50A92
S1132C90E60AF70AC701B6012D8D3E8D4F8D58A166
S1132CA00E94CA1E298F3A8F4B8F5C8F6DA77EA717
S1132CB08FA798ABC701B6012D8D3E8D4F8D58A1BE
S1132CC00E94CA1ECA01B90129A53AA54BA55CA553
S1132CD00E94AB1E8B019C014DA55EA56FA578A932
S1132CE0DA01992788274DA15EA16FA178A56070AC
S1132CF07070842B952BA62BB72B498D5A8D6B8D19
S1132D007C8D80179107A207B307D0F4415050403F
S1132D1060407040880D991DAA1DBB1D881599053A
S1132D20AA05BB0568F080179107A207B30740F412
S1132D30498D5A8D6B8D7C8D42505040604070405F
S1132D4009A11AA12BA13CA17801DD24CC24C42A19
S1132D50D52AE62AF72A46C2C816D906EA06FB0689
S1132D6008F42DC2803010E0910711E0A10710E0B3
S1132D70B10750F48F3F9105A105B10509F088F41E
S1132D8000E010E0980116C0803020E0920720E0B7
S1132D90A20721E0B20750F400E110E020E030E0A7
S1132DA009C008E010E020E030E004C008E110E0D1
S1132DB020E030E0AC01BD01002E04C0769567959B
S1132DC0579547950A94D2F7FA01E258FF4F40818C
S1132DD0040F111D211D311D40E250E060E070E040
S1132DE0401B510B620B730BA1F48C159D05AE05B2
S1132DF0BF0508F4EBC10DA11EA12FA138A54424E1
S1132E0055243201081519052A053B0508F0E1C1CE
S1132E10D9C1342E2C013D0104C0440C551C661C40
S1132E20771C4A95D2F7D501C401002E04C0B6958B
S1132E30A795979587950A94D2F7482A592A6A2A1A
S1132E407B2AA5019401032C04C0220F331F441FC5
S1132E50551F0A94D2F729A73AA74BA75CA7B70135
S1132E60A601002E04C076956795579547950A9458
S1132E70D2F749A35AA36BA37CA3C701B601032CC1
S1132E8004C0660F771F881F991F0A94D2F76D8FAD
S1132E907E8F8F8F98A38DA19EA1AFA1B8A504C0EA
S1132EA0B695A795979587950A95D2F74D8D5E8D22
S1132EB06F8D78A1482B592B6A2B7B2B4D8F5E8FFE
S1132EC06F8F78A34301AA24BB249301820120704D
S1132ED030700DA71EA72FA738AB69A17AA18BA1CB
S1132EE09CA1A50194010E94CA1E298F3A8F4B8F81
S1132EF05C8F6B017C0169A17AA18BA19CA1A501C6
S1132F0094010E94CA1ECA01B9012DA53EA54FA570
S1132F1058A90E94AB1EDC01CB017601DD24CC2430
S1132F200D8D1E8D2F8D38A1A90166277727C42A00
S1132F30D52AE62AF72A098D1A8D2B8D3C8DC816C1
S1132F40D906EA06FB0638F501501040204030400F
S1132F5009A31AA32BA33CA3C40CD51CE61CF71C81
S1132F60C414D504E604F704D0F0C816D906EA065A
S1132F70FB06A8F4098D1A8D2B8D3C8D0250104050
S1132F802040304009A31AA32BA33CA3C40CD51C96
S1132F90E61CF71C04C009A31AA32BA33CA3C81A5C
S1132FA0D90AEA0AFB0AC701B601A50194010E94E5
S1132FB0CA1E298F3A8F4B8F5C8F69AB7AAB8BAB70
S1132FC09CABC701B601A50194010E94CA1ECA01A7
S1132FD0B9012DA53EA54FA558A90E94AB1E4B01D2
S1132FE05C0149A95AA96BA97CA99A011127002758
S1132FF08D8D9E8DAF8DB8A1A070B070082B192B4C
S11330002A2B3B2B898D9A8DAB8DBC8D0815190508
S11330102A053B05E0F40197A109B109040D151D2A
S1133020261D371D041515052605370580F00815DE
S113303019052A053B0558F4898D9A8DAB8DBC8DF5
S11330400297A109B109040D151D261D371DB901EB
S1133050A801481959096A097B094D8F5E8F6F8F42
S113306078A309A11AA12BA13CA17801DD24CC24C9
S1133070C82AD92AEA2AFB2AFFEF8F2EFFEF9F2EB8
S1133080A12CB12C8C209D20AE20BF2087012227AB
S11330903327098F1A8F2B8F3C8F49A45AA46BA412
S11330A07CA42FEF3FEF40E050E042225322642201
S11330B0752229A53AA54BA55CA58A0122273327A9
S11330C009A31AA32BA33CA3C501B401A301920134
S11330D00E94AB1E69A77AA78BA79CA7C501B40160
S11330E029A13AA14BA15CA10E94AB1E4B015C013A
S11330F0698D7A8D8B8D9C8DA30192010E94AB1EEC
S11331002B013C01698D7A8D8B8D9C8D29A13AA16F
S11331104BA15CA10E94AB1EAB01BC01840C951CAD
S1133120A61CB71C09A51AA52BA53CA5C901AA274D
S1133130BB27880E991EAA1EBB1E84149504A604E0
S1133140B70420F4405050406F4F7F4FC501AA2769
S1133150BB27840F951FA61FB71F0D8D1E8D2F8DA6
S113316038A1081719072A073B0718F18017910798
S1133170A207B307A1F554019924882489A59AA527
S1133180ABA5BCA5A070B070880E991EAA1EBB1E6C
S11331904DA15EA16FA178A5032C04C0440F551F57
S11331A0661F771F0A94D2F7481559056A057B05EF
S11331B0B0F40894C108D108E108F10810C044240F
S11331C055243201CC24DD2476010CC0442455243A
S11331D0320181E0C82ED12CE12CF12C03C044240F
S11331E055243201FE01319688E0DF011D928A9553
S11331F0E9F7C982DA82EB82FC824D825E826F82B9
S113320078862C2D3A814B815C81642D7E818F815F
S11332109885E496E1E10C94091FA4E3B0E0E3E1AE
S1133220F9E10C94EC1EF82FE92FA986BA86CB8617
S1133230DC86ED86FE860F87188B89849A84AB849E
S1133240BC848D859E85AF85B889298F3A8F4B8F35
S11332505C8F6B01EF2EFE2E0097A105B10509F0DE
S1133260A2C2C814D904EA04FB0408F087C000E031
S1133270801600E0900601E0A00600E0B00658F4D5
S11332801FEF81169104A104B10409F090F480E0C9
S113329090E0DC0117C020E0821620E0920620E0D6
S11332A0A20621E0B20650F480E190E0A0E0B0E094
S11332B009C088E090E0A0E0B0E004C088E190E0BC
S11332C0A0E0B0E0B501A401082E04C0769567958E
S11332D0579547950A94D2F7FA01E258FF4F208197
S11332E040E250E060E070E0481B590B6A0B7B0B36
S11332F0421B5109610971094D8F5E8F6F8F78A34D
S1133300411551056105710509F485C12D8D022E04
S113331004C0880C991CAA1CBB1C0A94D2F7B701E0
S1133320A601022E04C0440F551F661F771F0A947E
S1133330D2F780E290E0AD8DBE8D8A1B9B0BC98CC9
S1133340DA8CEB8CFC8C04C0F694E794D794C79485
S11333508A95D2F7C42AD52AE62AF72A498D5A8DA6
S11333606B8D7C8D04C0440F551F661F771F2A95F3
S1133370D2F7498F5A8F6B8F7C8F4DC18114910482
S1133380A104B10451F461E070E080E090E0A50193
S113339094010E94CA1E49015A0100E0801600E00F
S11333A0900601E0A00600E0B00658F41FEF811675
S11333B09104A104B10409F090F480E090E0DC01F0
S11333C017C020E0821620E0920620E0A20621E049
S11333D0B20650F480E190E0A0E0B0E009C088E0DB
S11333E090E0A0E0B0E004C088E190E0A0E0B0E0AC
S11333F0B501A401082E04C07695679557954795A5
S11334000A94D2F7FA01E258FF4F2081820F911DEE
S1133410A11DB11D00E210E020E030E0081B190BF3
S11334202A0B3B0B0D8F1E8F2F8F38A3011511050F
S11334302105310529F4C818D908EA08FB08EBC0AE
S11334402D8D022E04C0880C991CAA1CBB1C0A9446
S1133450D2F7B701A601082E04C076956795579553
S113346047950A94D2F749A75AA76BA77CA7B70137
S1133470A601022E04C0440F551F661F771F0A942D
S1133480D2F7C98CDA8CEB8CFC8C04C0F694E794EC
S1133490D794C7948A95D2F74C295D296E297F2940
S11334A049A35AA36BA37CA3E98CFA8C0B8D1C8DC6
S11334B004C0EE0CFF1C001F111F2A95D2F7E98EE1
S11334C0FA8E0B8F1C8F25016624772495018401C5
S11334D0207030700DA31EA32FA338A769A57AA569
S11334E08BA59CA5A30192010E94CA1E022FC32E84
S11334F0142FF52E6DA77EA78FA798AB69A57AA583
S11335008BA59CA5A30192010E94CA1E602F7C2D4D
S1133510812F9F2D2DA13EA14FA158A50E94AB1E26
S1133520DC01CB010DA51EA52FA538A97801DD244A
S1133530CC2409A11AA12BA13CA1A90166277727B4
S1133540C42AD52AE62AF72AC816D906EA06FB06AB
S113355090F4C80CD91CEA1CFB1CC814D904EA0456
S1133560FB0448F0C816D906EA06FB0620F4C80C8A
S1133570D91CEA1CFB1CC81AD90AEA0AFB0AC701AF
S1133580B601A30192010E94CA1E122F032F342EEA
S1133590252E69A77AA78BA79CA7C701B601A3010B
S11335A092010E94CA1E612F702F832D922D2DA18E
S11335B03EA14FA158A50E94AB1EDC01CB0109A579
S11335C01AA52BA53CA57801DD24CC2449A15AA138
S11335D06BA17CA160707070C42AD52AE62AF72AF0
S11335E0C816D906EA06FB0690F4C80CD91CEA1CD6
S11335F0FB1CC814D904EA04FB0448F0C816D90615
S1133600EA06FB0620F4C80CD91CEA1CFB1CC81AE9
S1133610D90AEA0AFB0A85012227332709A31AA338
S11336202BA33CA3950184012070307009A71AA72D
S11336302BA73CA7C701B60129A13AA14BA15CA1C4
S11336400E94CA1E122F032F442E752E6DA37EA333
S11336508FA398A7C701B60129A13AA14BA15CA1E8
S11336600E94CA1E612F702F842D972D29A53AA57B
S11336704BA55CA50E94AB1EDC01CB010DA11EA1D4
S11336802FA138A57801DD24CC24098D1A8D2B8D2A
S11336903C8DA90166277727C42AD52AE62AF72A6A
S11336A0C816D906EA06FB0690F4C80CD91CEA1C15
S11336B0FB1CC814D904EA04FB0448F0C816D90654
S11336C0EA06FB0620F4C80CD91CEA1CFB1CC81A29
S11336D0D90AEA0AFB0AC701B60129A13AA14BA1FA
S11336E05CA10E94CA1E122F032F442E752E6DA3B7
S11336F07EA38FA398A7C701B60129A13AA14BA124
S11337005CA10E94CA1E612F702F842D972D29A5BC
S11337103AA54BA55CA50E94AB1EAB01BC01CDA094
S1133720DEA0EFA0F8A4D60199278827098D1A8D69
S11337302B8D3C8D20703070802B912BA22BB32BC2
S113374084179507A607B70790F4880D991DAA1D3D
S1133750BB1D88159905AA05BB0548F08417950774
S1133760A607B70720F4880D991DAA1DBB1D841B4D
S1133770950BA60BB70B8C019D010D8C04C03695DF
S11337802795179507950A94D2F709831A832B83F3
S11337903C831D821E821F821886202F3A814B8112
S11337A05C8160E0D1C2C816D906EA06FB0618F4AB
S11337B08F2F9E2FCCC2803000E0900701E0A0073D
S11337C000E0B00750F48F3F9105A105B10509F061
S11337D088F400E010E0980116C0803010E09107F2
S11337E010E0A10711E0B10750F400E110E020E07F
S11337F030E009C008E010E020E030E004C008E157
S113380010E020E030E0AC01BD01002E04C076954C
S11338106795579547950A94D2F7FA01E258FF4FF6
S11338204081040F111D211D311D40E250E060E074
S113383070E0401B510B620B730B09F040C08C15F8
S11338409D05AE05BF0548F0098D1A8D2B8D3C8D65
S1133850081519052A053B0520F1498D5A8D6B8DF4
S11338607C8D481959096A097B09C81AD90AEA0AD8
S1133870FB0A81E090E0A0E0B0E0898C9A8CAB8CEC
S1133880BC8C84169506A606B70618F080E090E076
S1133890DC01C81AD90AEA0AFB0A498F5A8F6B8FCE
S11338A07C8F098D1A8D2B8D3C8D09831A832B8374
S11338B03C83CD82DE82EF82F886298D41C2342E8C
S11338C0AC01BD01032C04C0440F551F661F771FB4
S11338D00A94D2F7202ED501C40104C0B695A79549
S11338E0979587950A95D2F7482B592B6A2B7B2BF2
S11338F04D8F5E8F6F8F78A395018401032C04C0D4
S1133900000F111F221F331F0A94D2F709A71AA709
S11339102BA73CA746015701022C04C0B694A794D8
S1133920979487940A94D2F78DA29EA2AFA2B8A6C8
S113393097018601032C04C0000F111F221F331F9F
S11339400A94D2F7898D9A8DAB8DBC8D022C04C05C
S1133950B695A795979587950A94D2F7082B192BB6
S11339602A2B3B2B09A31AA32BA33CA3898C9A8C47
S1133970AB8CBC8C032C04C0880C991CAA1CBB1CEB
S11339800A94D2F7898E9A8EAB8EBC8E4B01AA24F0
S1133990BB24607070704DA75EA76FA778AB6DA154
S11339A07EA18FA198A5A50194010E94CA1E290198
S11339B03A016B017C016DA17EA18FA198A5A5019F
S11339C094010E94CA1EC301B2012DA53EA54FA5B4
S11339D058A90E94AB1EDC01CB017601DD24CC2466
S11339E009A11AA12BA13CA1A90166277727C42A02
S11339F0D52AE62AF72AC816D906EA06FB0678F578
S1133A009301820101501040204030400DA31EA3B9
S1133A102FA338A70D8D1E8D2F8D38A1C00ED11E5A
S1133A20E21EF31EC016D106E206F306E0F0C81645
S1133A30D906EA06FB06B8F493018201025010404D
S1133A40204030400DA31EA32FA338A70D8D1E8D3B
S1133A502F8D38A1C00ED11EE21EF31E04C04DA24C
S1133A605EA26FA278A6C81AD90AEA0AFB0AC7019D
S1133A70B601A50194010E94CA1E29013A0169AB4D
S1133A807AAB8BAB9CABC701B601A50194010E9434
S1133A90CA1EC301B2012DA53EA54FA558A90E9477
S1133AA0AB1E8B019C0189A89AA8ABA8BCA8B40141
S1133AB05527442789A19AA1ABA1BCA1A070B070DD
S1133AC0482B592B6A2B7B2BD301C201401751077A
S1133AD062077307F0F40197A109B109AD8CBE8C9C
S1133AE0CF8CD8A04A0D5B1D6C1D7D1D4A155B054E
S1133AF06C057D0570F0401751076207730748F4A1
S1133B00D301C2010297A109B1094A0D5B1D6C1DC5
S1133B107D1D6A017B01C01AD10AE20AF30AC9A217
S1133B20DAA2EBA2FCA2EDA0FEA00FA118A5B7019A
S1133B3055274427482B592B6A2B7B2BFFEFCF2E7D
S1133B40FFEFDF2EE12CF12CC422D522E622F7224E
S1133B502B016624772489A49AA4ABA4BCA40FEFF8
S1133B601FEF20E030E080229122A222B32229A577
S1133B703AA54BA55CA58A01222733270DA31EA3D2
S1133B802FA338A7C701B601A50194010E94AB1E5B
S1133B906DA77EA78FA798ABC701B6012DA13EA143
S1133BA04FA158A50E94AB1E6B017C01C301B20159
S1133BB0A50194010E94AB1E4B015C01C301B2013B
S1133BC02DA13EA14FA158A50E94AB1EAB01BC0183
S1133BD0C80CD91CEA1CFB1C0DA51EA52FA538A9D1
S1133BE0C901AA27BB27C80ED91EEA1EFB1EC8148A
S1133BF0D904EA04FB0420F4405050406F4F7F4F37
S1133C00C701AA27BB27840F951FA61FB71F7601DC
S1133C10DD24CC244DA55EA56FA578A960707070D5
S1133C20C40ED51EE61EF71E89A09AA0ABA0BCA0A8
S1133C3088169906AA06BB0670F088159905AA0588
S1133C40BB0599F5098D1A8D2B8D3C8D0C151D0521
S1133C502E053F0550F5B701A60189A49AA4ABA48B
S1133C60BCA4481959096A097B098C019D018D8CF2
S1133C709E8CAF8CB8A0081919092A093B0981E068
S1133C8090E0A0E0B0E0C416D506E606F70618F00A
S1133C9080E090E0DC0158016901A81AB90ACA0A57
S1133CA0DB0AD601C5016A017B01898C9A8CAB8C35
S1133CB0BC8C8C189D08AE08BF0849A15AA16BA101
S1133CC07CA1481B590B6A0B7B0B81E090E0A0E0C0
S1133CD0B0E0C98CDA8CEB8CFC8CC814D904EA04EF
S1133CE0FB0418F080E090E0DC01481B590B6A0BE0
S1133CF07B0B8A019B0104C0000F111F221F331F7D
S1133D002A94D2F7032C04C0B694A794979487946A
S1133D100A94D2F7082919292A293B2909831A83E5
S1133D202B833C836A017B0104C0F694E794D79407
S1133D30C7943A94D2F7CD82DE82EF82F886202FA0
S1133D403A814B815C816C2D7E818F819885E496CC
S1133D50E2E10C94081F629FD001739FF001829FDF
S1133D60E00DF11D649FE00DF11D929FF00D839F06
S1133D70F00D749FF00D659FF00D9927729FB00DA3
S1133D80E11DF91F639FB00DE11DF91FBD01CF01B6
S1133D9011240895A1E21A2EAA1BBB1BFD010DC01C
S1133DA0AA1FBB1FEE1FFF1FA217B307E407F507E7
S1133DB020F0A21BB30BE40BF50B661F771F881FC3
S1133DC0991F1A9469F760957095809590959B0159
S1133DD0AC01BD01CF0108952F923F924F925F92A3
S1133DE06F927F928F929F92AF92BF92CF92DF9207
S1133DF0EF92FF920F931F93CF93DF93CDB7DEB76C
S1133E00CA1BDB0B0FB6F894DEBF0FBECDBF0994FF
S1133E102A88398848885F846E847D848C849B8456
S1133E20AA84B984C884DF80EE80FD800C811B8164
S1133E30AA81B981CE0FD11D0FB6F894DEBF0FBE93
S10D3E40CDBFED010895F894FFCF03
S1133E4A53796E746178094572726F72210037383A
S1133E5A392F3435362A3132332D41303D2B000186
S1133E6A020203030303040404040404040405050A
S1133E7A05050505050505050505050505050606E2
S1133E8A06060606060606060606060606060606C4
S1133E9A06060606060606060606060606060707B2
S1133EAA0707070707070707070707070707070794
S1133EBA0707070707070707070707070707070784
S1133ECA0707070707070707070707070707070774
S1133EDA0707070707070707070707070707080862
S1133EEA0808080808080808080808080808080844
S1133EFA0808080808080808080808080808080834
S1133F0A0808080808080808080808080808080823
S1133F1A0808080808080808080808080808080813
S1133F2A0808080808080808080808080808080803
S1133F3A08080808080808080808080808080808F3
S1133F4A08080808080808080808080808080808E3
S1113F5A0808080808080808080808080808E5
S9030000FC
