S012000043616C63756C61746F722E7372656308
S11300000C942A000C9447000C9447000C9447006D
S11300100C9447000C9447000C9447000C94470040
S11300200C9447000C9447000C9447000C94470030
S11300300C9447000C9447000C9447000C94470020
S11300400C9447000C9447000C9447000C94470010
S11300500C94470011241FBECFE5D8E0DEBFCDBF0E
S113006011E0A0E6B0E0EAE5F0E302C005900D92ED
S1130070AE37B107D9F711E0AEE7B1E001C01D9288
S1130080AE37B107E1F70E94FF0F0C942B180C94C4
S11300900000843409F44BC0853440F4823429F1DF
S11300A08334A0F5813409F052C00EC08236E9F0E1
S11300B0833620F4813609F04AC006C0833631F114
S11300C0843609F044C033C02AB381E090E002C012
S11300D0880F991F6A95E2F7413019F4282B2ABB3F
S11300E00895809582238ABB089527B381E090E028
S11300F002C0880F991F6A95E2F7413019F4282B42
S113010027BB08958095822387BB089524B381E09B
S113011090E002C0880F991F6A95E2F7413019F404
S1130120282B24BB08958095822384BB089521B392
S113013081E090E002C0880F991F6A95E2F7413090
S113014019F4282B21BB08958095822381BB08953F
S1130150843409F44BC0853440F4823429F1833467
S1130160A0F5813409F052C00EC08236E9F083361E
S113017020F4813609F04AC006C0833631F1843652
S113018009F044C033C02BB381E090E002C0880F73
S1130190991F6A95E2F7413019F4282B2BBB089577
S11301A0809582238BBB089528B381E090E002C040
S11301B0880F991F6A95E2F7413019F4282B28BB60
S11301C008958095822388BB089525B381E090E04B
S11301D002C0880F991F6A95E2F7413019F4282B61
S11301E025BB08958095822385BB089522B381E0C1
S11301F090E002C0880F991F6A95E2F7413019F424
S1130200282B22BB08958095822382BB08958434D1
S1130210B1F1853438F48234E1F0833428F5813443
S1130220C1F50CC08236A9F0833618F4813689F5FD
S113023005C08336C9F0843661F521C02BB381E053
S113024090E002C0880F991F6A95E2F728272BBB1C
S1130250089528B381E090E002C0880F991F6A9541
S1130260E2F7282728BB089525B381E090E002C077
S1130270880F991F6A95E2F7282725BB089522B3B2
S113028081E090E002C0880F991F6A95E2F7282761
S113029022BB08958434D9F0853438F4823499F03B
S11302A0833498F4813429F50CC0823661F08336A6
S11302B018F48136F1F405C0833639F08436C9F474
S11302C006C029B305C026B303C023B301C020B3BD
S11302D081E090E0062E02C0880F991F0A94E2F78D
S11302E030E08223932302C0959587956A95E2F7BF
S11302F0089580E008958434D9F0853438F4823444
S113030099F0833498F48134A1F40CC0823661F0FE
S1130310833618F4813669F405C0833639F084369F
S113032041F406C06ABB089567BB089564BB089591
S113033061BB08958434D9F0853438F4823499F05B
S1130340833498F48134A1F40CC0823661F083368E
S113035018F4813669F405C0833639F0843641F4E3
S113036006C06BBB089568BB089565BB089562BB66
S113037008958434D9F0853438F4823499F0833480
S113038098F48134A9F40CC0823661F0833618F4F1
S1130390813671F405C0833639F0843649F406C0D9
S11303A089B3089586B3089583B3089580B30895F7
S11303B080E00895843409F1853438F48234A9F056
S11303C08334B8F48134E1F40CC0823671F083369E
S11303D018F48136A9F405C0833659F0843681F4C3
S11303E00CC08BB380958BBB089588B3809588BB74
S11303F0089585B3809585BB089582B3809582BBAB
S11304000895843409F44BC0853440F4823429F1CE
S11304108334A0F5813409F052C00EC08236E9F06D
S1130420833620F4813609F04AC006C0833631F1A0
S1130430843609F044C033C02BB381E090E002C09D
S1130440880F991F6A95E2F7413019F4282B2BBBCA
S11304500895809582238BBB089528B381E090E0B2
S113046002C0880F991F6A95E2F7413019F4282BCE
S113047028BB08958095822388BB089525B381E025
S113048090E002C0880F991F6A95E2F7413019F491
S1130490282B25BB08958095822385BB089522B31C
S11304A081E090E002C0880F991F6A95E2F741301D
S11304B019F4282B22BB08958095822382BB0895CA
S11304C06F70843451F1853438F48234C1F083344C
S11304D0E8F4813441F50CC0823689F0833618F48F
S11304E0813609F505C0833689F08436E1F415C0F8
S11304F08BB3807F8BBB8BB3862B8BBB089588B368
S1130500807F88BB88B3862B88BB089585B3807FA2
S113051085BB85B3862B85BB089582B3807F82BB60
S113052082B3862B82BB08956295607F843451F137
S1130530853438F48234C1F08334E8F4813441F5ED
S11305400CC0823689F0833618F4813609F505C06B
S1130550833689F08436E1F415C08BB38F708BBB7E
S11305608BB3862B8BBB089588B38F7088BB88B3FD
S1130570862B88BB089585B38F7085BB85B3862B86
S113058085BB089582B38F7082BB82B3862B82BBF6
S11305900895CF93C82F6FE00E947B018C2F64E0F5
S11305A041E00E9401028C2F65E041E00E940102BB
S11305B08C2F66E041E00E9401028C2F67E041E04D
S11305C00E940102CF910895DF92EF92FF920F9360
S11305D01F93CF93DF93CDB7DEB760970FB6F89430
S11305E0DEBF0FBECDBFF82EDE011196EEE6F0E0C1
S11305F080E101900D928150E1F700E010E08F2D31
S11306006FE00E9460028F2D602F40E00E94A800DE
S1130610EE2494E0D92EDE0C8F2D6D2D0E944A011C
S11306208823B9F48F2D6D2D0E944A018823D1F3BC
S1130630F801EE0FFF1FEE0FFF1FEE0DF11D81E01D
S113064090E08C0F9D1FE80FF91F80818F3F29F0E8
S11306500AC0E39494E0E916E1F60F5F1F4F0430FB
S1130660110569F68FEF60960FB6F894DEBF0FBEE2
S1130670CDBFDF91CF911F910F91FF90EF90DF904D
S1130680089582E460E041E00E94A8008FE99FE0C1
S11306900197F1F700C0000082E460E040E00E94AE
S11306A0A8008FE99FE00197F1F700C000000895CA
S11306B0CF93C82F82E461E040E00E94A8006C2F31
S11306C062956F7081E40E9494020E94410381E468
S11306D06C2F0E9494020E9441038FEC97E00197D3
S11306E0F1F700C00000CF9108958FEF91EEA4E0E0
S11306F081509040A040E1F700C0000081E464E034
S113070041E00E94490081E465E041E00E94490023
S113071081E466E041E00E94490081E467E041E051
S11307200E94490082E460E041E00E94490082E4C2
S113073061E041E00E94490082E462E041E00E94FD
S1130740490082E462E040E00E94A80082E00E9446
S11307505803AFE1BEE41197F1F700C0000088E24E
S11307600E9458038FEC97E00197F1F700C0000056
S11307708EE00E945803AFECB7E01197F1F700C088
S1130780000081E00E9458038FE19EE40197F1F795
S113079000C0000086E00E945803AFECB7E0119758
S11307A0F1F700C000000895CF93C82F82E461E000
S11307B041E00E94A8006C2F62956F7081E40E9452
S11307C094020E94410381E46C2F0E9494020E94CF
S11307D04103CF910895CF93DF93EC0102C00E94AF
S11307E0D40389918823D9F7DF91CF91089581E0CB
S11307F00E9458038FE19EE40197F1F700C00000C6
S11308000895982F9150923068F4693258F4662311
S113081049F0813019F4862F815802C0862F815403
S11308200E9458030895803410F080E802C0806468
S11308308F770E9458030895A4E3B0E0E2E2F4E065
S11308400C94F517298B3A8B4B8B5C8B6D8B7E8BC1
S11308508F8B988FA986BA86CB86DC86ED86FE863A
S11308600F87188B89849A84AB84BC848D859E857C
S1130870AF85B88909891A892B893C890DA31EA3E0
S11308802FA338A7CD88DE88EF88F88C0097A105C0
S1130890B10509F0B5C3C814D904EA04FB0408F08F
S11308A04DC110E0811610E0910611E0A10610E0A0
S11308B0B10658F42FEF82169104A104B10409F093
S11308C090F480E090E0DC0117C030E0831630E063
S11308D0930630E0A30631E0B30650F480E190E0E3
S11308E0A0E0B0E009C088E090E0A0E0B0E004C07F
S11308F088E190E0A0E0B0E0B501A401082E04C0B6
S113090076956795579547950A94D2F7FA01E25878
S1130910FF4F208140E250E060E070E0481B590B3B
S11309206A0B7B0B421B5109610971094115510581
S113093061057105A1F1042E04C0880C991CAA1C40
S1130940BB1C0A94D2F797018601042E04C0000F41
S1130950111F221F331F0A94D2F780E290E0841BF8
S1130960950BCDA0DEA0EFA0F8A404C0F694E79404
S1130970D794C7948A95D2F7C02AD12AE22AF32AB7
S11309800DA11EA12FA138A504C0000F111F221F05
S1130990331F4A95D2F70DA31EA32FA338A7250111
S11309A066247724950184012070307009A31AA36A
S11309B02BA33CA3C701B601A30192010E94D21745
S11309C02D8F3E8F4F8F58A3698F7A8F8B8F9C8F7B
S11309D0C701B601A30192010E94D217CA01B9014D
S11309E029A13AA14BA15CA10E94B317AB01BC01A0
S11309F0098D1A8D2B8D3C8D7801DD24CC240DA11D
S1130A001EA12FA138A5C901AA27BB27C82AD92A04
S1130A10EA2AFB2A0D8D1E8D2F8D38A1C416D5060A
S1130A20E606F70638F50150104020403040098FA3
S1130A301A8F2B8F3C8FC80CD91CEA1CFB1CC814C2
S1130A40D904EA04FB04D0F0C416D506E606F7067A
S1130A50A8F40D8D1E8D2F8D38A10250104020401A
S1130A603040098F1A8F2B8F3C8FC80CD91CEA1C7D
S1130A70FB1C04C0098F1A8F2B8F3C8FC41AD50A14
S1130A80E60AF70AC701B601A30192010E94D21730
S1130A902D8F3E8F4F8F58A369A77AA78BA79CA74A
S1130AA0C701B601A30192010E94D217CA01B9017C
S1130AB029A13AA14BA15CA10E94B3176B017C014F
S1130AC049A55AA56BA57CA59A01112700274DA11C
S1130AD05EA16FA178A560707070042B152B262B76
S1130AE0372B8D8D9E8DAF8DB8A10C151D052E0550
S1130AF03F05C0F40197A109B109080D191D2A1D6C
S1130B003B1D081519052A053B0560F00C151D054C
S1130B102E053F0538F48D8D9E8DAF8DB8A10297BB
S1130B20A109B109098D1A8D2B8D3C8D7801DD2425
S1130B30CC24C82AD92AEA2AFB2AA5C48114910400
S1130B40A104B10451F461E070E080E090E0A501FB
S1130B5094010E94D21749015A0110E0811610E055
S1130B60910611E0A10610E0B10658F42FEF8216A9
S1130B709104A104B10409F090F480E090E0DC0158
S1130B8017C030E0831630E0930630E0A30631E06E
S1130B90B30650F480E190E0A0E0B0E009C088E042
S1130BA090E0A0E0B0E004C088E190E0A0E0B0E014
S1130BB0B501A401082E04C076956795579547950D
S1130BC00A94D2F7FA01E258FF4F2081AC01BD012B
S1130BD0420F511D611D711D80E290E0A0E0B0E064
S1130BE0841B950BA60BB70B51F4C818D908EA0857
S1130BF0FB08F1E04F2E512C612C712C24C1082EDE
S1130C0004C0880C991CAA1CBB1C0A94D2F7970137
S1130C108601042E04C036952795179507950A94E6
S1130C20D2F709A31AA32BA33CA397018601082E8C
S1130C3004C0000F111F221F331F0A94D2F70D8F17
S1130C401E8F2F8F38A30DA11EA12FA138A504C07C
S1130C5036952795179507954A95D2F7B901A801B6
S1130C600D8D1E8D2F8D38A1042B152B262B372B84
S1130C700D8F1E8F2F8F38A30DA11EA12FA138A574
S1130C8004C0000F111F221F331F8A95D2F70DA332
S1130C901EA32FA338A72501662477249501840178
S1130CA02070307009A71AA72BA73CA769A17AA1C5
S1130CB08BA19CA1A30192010E94D217298F3A8F84
S1130CC04B8F5C8F6B017C0169A17AA18BA19CA1E4
S1130CD0A30192010E94D217CA01B90129A53AA51C
S1130CE04BA55CA50E94B317AB01BC017601DD24C2
S1130CF0CC240D8D1E8D2F8D38A1C901AA27BB27A9
S1130D00C82AD92AEA2AFB2A098D1A8D2B8D3C8DF3
S1130D10C416D506E606F70638F501501040204003
S1130D20304009A31AA32BA33CA3C80CD91CEA1C6A
S1130D30FB1CC814D904EA04FB04D0F0C416D5067D
S1130D40E606F706A8F4098D1A8D2B8D3C8D02500A
S1130D5010402040304009A31AA32BA33CA3C80C85
S1130D60D91CEA1CFB1C04C009A31AA32BA33CA393
S1130D70C41AD50AE60AF70AC701B601A30192010B
S1130D800E94D217298F3A8F4B8F5C8F6DA77EA755
S1130D908FA798ABC701B601A30192010E94D21795
S1130DA0CA01B90129A53AA54BA55CA50E94B317B0
S1130DB08B019C014DA55EA56FA578A9DA01992741
S1130DC088274D8D5E8D6F8D78A160707070842B37
S1130DD0952BA62BB72B498D5A8D6B8D7C8D801747
S1130DE09107A207B307F0F44150504060407040AF
S1130DF0880D991DAA1DBB1D88159905AA05BB055B
S1130E0088F080179107A207B30760F4498D5A8DC3
S1130E106B8D7C8D4250504060407040880D991D10
S1130E20AA1DBB1D6C017D01C01AD10AE20AF30A96
S1130E3009A11AA12BA13CA1380155244424442A18
S1130E40552A662A772A8501222733270D8F1E8F7C
S1130E502F8F38A3950184012070307009A71AA739
S1130E602BA73CA7C701B6012D8D3E8D4F8D58A1F0
S1130E700E94D217298F3A8F4B8F5C8F69A37AA374
S1130E808BA39CA3C701B6012D8D3E8D4F8D58A118
S1130E900E94D217CA01B90129A53AA54BA55CA5A0
S1130EA00E94B317AB01BC0109A11AA12BA13CA15B
S1130EB07801DD24CC240DA11EA12FA138A5C901E0
S1130EC0AA27BB27C82AD92AEA2AFB2A098D1A8D00
S1130ED02B8D3C8DC416D506E606F70638F5015071
S1130EE010402040304009A31AA32BA33CA3C80CF4
S1130EF0D91CEA1CFB1CC814D904EA04FB04D0F076
S1130F00C416D506E606F706A8F4098D1A8D2B8DAE
S1130F103C8D025010402040304009A31AA32BA35B
S1130F203CA3C80CD91CEA1CFB1C04C009A31AA3CB
S1130F302BA33CA3C41AD50AE60AF70AC701B601D3
S1130F402D8D3E8D4F8D58A10E94D217298F3A8F37
S1130F504B8F5C8F6DA77EA78FA798ABC701B60197
S1130F602D8D3E8D4F8D58A10E94D217CA01B90113
S1130F7029A53AA54BA55CA50E94B3178B019C013A
S1130F804DA55EA56FA578A9DA01992788274DA1FB
S1130F905EA16FA178A560707070842B952BA62B31
S1130FA0B72B498D5A8D6B8D7C8D80179107A207C5
S1130FB0B307D0F44150504060407040880D991DF3
S1130FC0AA1DBB1D88159905AA05BB0568F08017E5
S1130FD09107A207B30740F4498D5A8D6B8D7C8D20
S1130FE0425050406040704009A11AA12BA13CA17D
S1130FF07801DD24CC24C42AD52AE62AF72A46C25D
S1131000C816D906EA06FB0608F42DC2803010E0A3
S1131010910711E0A10710E0B10750F48F3F91054B
S1131020A105B10509F088F400E010E0980116C0AC
S1131030803020E0920720E0A20721E0B20750F4BC
S113104000E110E020E030E009C008E010E020E01A
S113105030E004C008E110E020E030E0AC01BD0164
S1131060002E04C076956795579547950A94D2F754
S1131070FA01E258FF4F4081040F111D211D311D5B
S113108040E250E060E070E0401B510B620B730BD8
S1131090A1F48C159D05AE05BF0508F4EBC10DA1A7
S11310A01EA12FA138A54424552432010815190581
S11310B02A053B0508F0E1C1D9C1342E2C013D01BC
S11310C004C0440C551C661C771C4A95D2F7D50104
S11310D0C401002E04C0B695A795979587950A94E8
S11310E0D2F7482A592A6A2A7B2AA5019401032C9B
S11310F004C0220F331F441F551F0A94D2F729A797
S11311003AA74BA75CA7B701A601002E04C07695A9
S11311106795579547950A94D2F749A35AA36BA3A9
S11311207CA3C701B601032C04C0660F771F881F78
S1131130991F0A94D2F76D8F7E8F8F8F98A38DA1FC
S11311409EA1AFA1B8A504C0B695A795979587951C
S11311500A95D2F74D8D5E8D6F8D78A1482B592B52
S11311606A2B7B2B4D8F5E8F6F8F78A34301AA244C
S1131170BB2493018201207030700DA71EA72FA7F6
S113118038AB69A17AA18BA19CA1A50194010E940D
S1131190D217298F3A8F4B8F5C8F6B017C0169A129
S11311A07AA18BA19CA1A50194010E94D217CA0126
S11311B0B9012DA53EA54FA558A90E94B317DC017E
S11311C0CB017601DD24CC240D8D1E8D2F8D38A10D
S11311D0A90166277727C42AD52AE62AF72A098D82
S11311E01A8D2B8D3C8DC816D906EA06FB0638F5F8
S11311F0015010402040304009A31AA32BA33CA364
S1131200C40CD51CE61CF71CC414D504E604F7046E
S1131210D0F0C816D906EA06FB06A8F4098D1A8D83
S11312202B8D3C8D025010402040304009A31AA35E
S11312302BA33CA3C40CD51CE61CF71C04C009A3B7
S11312401AA32BA33CA3C81AD90AEA0AFB0AC701AA
S1131250B601A50194010E94D217298F3A8F4B8FB2
S11312605C8F69AB7AAB8BAB9CABC701B601A501B4
S113127094010E94D217CA01B9012DA53EA54FA51C
S113128058A90E94B3174B015C0149A95AA96BA93B
S11312907CA99A01112700278D8D9E8DAF8DB8A151
S11312A0A070B070082B192B2A2B3B2B898D9A8D9B
S11312B0AB8DBC8D081519052A053B05E0F4019793
S11312C0A109B109040D151D261D371D04151505A9
S11312D02605370580F0081519052A053B0558F43D
S11312E0898D9A8DAB8DBC8D0297A109B109040D2E
S11312F0151D261D371DB901A801481959096A0988
S11313007B094D8F5E8F6F8F78A309A11AA12BA142
S11313103CA17801DD24CC24C82AD92AEA2AFB2A54
S1131320FFEF8F2EFFEF9F2EA12CB12C8C209D2040
S1131330AE20BF20870122273327098F1A8F2B8FD6
S11313403C8F49A45AA46BA47CA42FEF3FEF40E048
S113135050E0422253226422752229A53AA54BA5C6
S11313605CA58A012227332709A31AA32BA33CA334
S1131370C501B401A30192010E94B31769A77AA71A
S11313808BA79CA7C501B40129A13AA14BA15CA1DB
S11313900E94B3174B015C01698D7A8D8B8D9C8DF6
S11313A0A30192010E94B3172B013C01698D7A8D30
S11313B08B8D9C8D29A13AA14BA15CA10E94B317EE
S11313C0AB01BC01840C951CA61CB71C09A51AA56D
S11313D02BA53CA5C901AA27BB27880E991EAA1EC6
S11313E0BB1E84149504A604B70420F44050504056
S11313F06F4F7F4FC501AA27BB27840F951FA61FD8
S1131400B71F0D8D1E8D2F8D38A1081719072A07B8
S11314103B0718F180179107A207B307A1F5540100
S11314209924882489A59AA5ABA5BCA5A070B07001
S1131430880E991EAA1EBB1E4DA15EA16FA178A5A0
S1131440032C04C0440F551F661F771F0A94D2F75C
S1131450481559056A057B05B0F40894C108D108FC
S1131460E108F10810C0442455243201CC24DD24C1
S113147076010CC044245524320181E0C82ED12CBD
S1131480E12CF12C03C0442455243201FE01319691
S113149088E0DF011D928A95E9F7C982DA82EB823E
S11314A0FC824D825E826F8278862C2D3A814B813C
S11314B05C81642D7E818F819885E496E1E10C94B2
S11314C01118A4E3B0E0E7E6FAE00C94F417F82F5F
S11314D0E92FA986BA86CB86DC86ED86FE860F8741
S11314E0188B89849A84AB84BC848D859E85AF8552
S11314F0B889298F3A8F4B8F5C8F6B01EF2EFE2EAC
S11315000097A105B10509F0A2C2C814D904EA04E0
S1131510FB0408F087C000E0801600E0900601E0BC
S1131520A00600E0B00658F41FEF81169104A10450
S1131530B10409F090F480E090E0DC0117C020E0F1
S1131540821620E0920620E0A20621E0B20650F4C2
S113155080E190E0A0E0B0E009C088E090E0A0E085
S1131560B0E004C088E190E0A0E0B0E0B501A401DF
S1131570082E04C076956795579547950A94D2F737
S1131580FA01E258FF4F208140E250E060E070E051
S1131590481B590B6A0B7B0B421B510961097109EA
S11315A04D8F5E8F6F8F78A34115510561057105CD
S11315B009F485C12D8D022E04C0880C991CAA1C27
S11315C0BB1C0A94D2F7B701A601022E04C0440F33
S11315D0551F661F771F0A94D2F780E290E0AD8D05
S11315E0BE8D8A1B9B0BC98CDA8CEB8CFC8C04C0E3
S11315F0F694E794D794C7948A95D2F7C42AD52A47
S1131600E62AF72A498D5A8D6B8D7C8D04C0440FD0
S1131610551F661F771F2A95D2F7498F5A8F6B8FF4
S11316207C8F4DC181149104A104B10451F461E093
S113163070E080E090E0A50194010E94D217490176
S11316405A0100E0801600E0900601E0A00600E0E8
S1131650B00658F41FEF81169104A104B10409F0F7
S113166090F480E090E0DC0117C020E0821620E0D6
S1131670920620E0A20621E0B20650F480E190E058
S1131680A0E0B0E009C088E090E0A0E0B0E004C0D1
S113169088E190E0A0E0B0E0B501A401082E04C008
S11316A076956795579547950A94D2F7FA01E258CB
S11316B0FF4F2081820F911DA11DB11D00E210E09A
S11316C020E030E0081B190B2A0B3B0B0D8F1E8FFB
S11316D02F8F38A3011511052105310529F4C818E8
S11316E0D908EA08FB08EBC02D8D022E04C0880C33
S11316F0991CAA1CBB1C0A94D2F7B701A601082E98
S113170004C076956795579547950A94D2F749A7EB
S11317105AA76BA77CA7B701A601022E04C0440FE9
S1131720551F661F771F0A94D2F7C98CDA8CEB8C8D
S1131730FC8C04C0F694E794D794C7948A95D2F7A6
S11317404C295D296E297F2949A35AA36BA37CA345
S1131750E98CFA8C0B8D1C8D04C0EE0CFF1C001F51
S1131760111F2A95D2F7E98EFA8E0B8F1C8F250153
S11317706624772495018401207030700DA31EA384
S11317802FA338A769A57AA58BA59CA5A3019201CF
S11317900E94D217022FC32E142FF52E6DA77EA7F9
S11317A08FA798AB69A57AA58BA59CA5A3019201E7
S11317B00E94D217602F7C2D812F9F2D2DA13EA139
S11317C04FA158A50E94B317DC01CB010DA51EA59E
S11317D02FA538A97801DD24CC2409A11AA12BA1B5
S11317E03CA1A90166277727C42AD52AE62AF72A25
S11317F0C816D906EA06FB0690F4C80CD91CEA1CE4
S1131800FB1CC814D904EA04FB0448F0C816D90622
S1131810EA06FB0620F4C80CD91CEA1CFB1CC81AF7
S1131820D90AEA0AFB0AC701B601A30192010E9480
S1131830D217122F032F342E252E69A77AA78BA730
S11318409CA7C701B601A30192010E94D217612F80
S1131850702F832D922D2DA13EA14FA158A50E943A
S1131860B317DC01CB0109A51AA52BA53CA578016A
S1131870DD24CC2449A15AA16BA17CA160707070B5
S1131880C42AD52AE62AF72AC816D906EA06FB0688
S113189090F4C80CD91CEA1CFB1CC814D904EA0433
S11318A0FB0448F0C816D906EA06FB0620F4C80C67
S11318B0D91CEA1CFB1CC81AD90AEA0AFB0A8501CE
S11318C02227332709A31AA32BA33CA39501840140
S11318D02070307009A71AA72BA73CA7C701B6012F
S11318E029A13AA14BA15CA10E94D217122F032F68
S11318F0442E752E6DA37EA38FA398A7C701B601AE
S113190029A13AA14BA15CA10E94D217612F702F8B
S1131910842D972D29A53AA54BA55CA50E94B31744
S1131920DC01CB010DA11EA12FA138A57801DD2476
S1131930CC24098D1A8D2B8D3C8DA9016627772720
S1131940C42AD52AE62AF72AC816D906EA06FB06C7
S113195090F4C80CD91CEA1CFB1CC814D904EA0472
S1131960FB0448F0C816D906EA06FB0620F4C80CA6
S1131970D91CEA1CFB1CC81AD90AEA0AFB0AC701CB
S1131980B60129A13AA14BA15CA10E94D217122F42
S1131990032F442E752E6DA37EA38FA398A7C70192
S11319A0B60129A13AA14BA15CA10E94D217612FD3
S11319B0702F842D972D29A53AA54BA55CA50E94CF
S11319C0B317AB01BC01CDA0DEA0EFA0F8A4D601F3
S11319D099278827098D1A8D2B8D3C8D20703070A6
S11319E0802B912BA22BB32B84179507A607B7073F
S11319F090F4880D991DAA1DBB1D88159905AA058B
S1131A00BB0548F084179507A607B70720F4880D8F
S1131A10991DAA1DBB1D841B950BA60BB70B8C012E
S1131A209D010D8C04C036952795179507950A944A
S1131A30D2F709831A832B833C831D821E821F8263
S1131A401886202F3A814B815C8160E0D1C2C81690
S1131A50D906EA06FB0618F48F2F9E2FCCC28030DD
S1131A6000E0900701E0A00700E0B00750F48F3FCA
S1131A709105A105B10509F088F400E010E0980192
S1131A8016C0803010E0910710E0A10711E0B10703
S1131A9050F400E110E020E030E009C008E010E07C
S1131AA020E030E004C008E110E020E030E0AC01C8
S1131AB0BD01002E04C076956795579547950A9405
S1131AC0D2F7FA01E258FF4F4081040F111D211D86
S1131AD0311D40E250E060E070E0401B510B620BAE
S1131AE0730B09F040C08C159D05AE05BF0548F089
S1131AF0098D1A8D2B8D3C8D081519052A053B057A
S1131B0020F1498D5A8D6B8D7C8D481959096A09CC
S1131B107B09C81AD90AEA0AFB0A81E090E0A0E02E
S1131B20B0E0898C9A8CAB8CBC8C84169506A60686
S1131B30B70618F080E090E0DC01C81AD90AEA0A76
S1131B40FB0A498F5A8F6B8F7C8F098D1A8D2B8DD1
S1131B503C8D09831A832B833C83CD82DE82EF8202
S1131B60F886298D41C2342EAC01BD01032C04C07A
S1131B70440F551F661F771F0A94D2F7202ED501F4
S1131B80C40104C0B695A795979587950A95D2F791
S1131B90482B592B6A2B7B2B4D8F5E8F6F8F78A32D
S1131BA095018401032C04C0000F111F221F331F51
S1131BB00A94D2F709A71AA72BA73CA746015701F5
S1131BC0022C04C0B694A794979487940A94D2F7ED
S1131BD08DA29EA2AFA2B8A697018601032C04C0D1
S1131BE0000F111F221F331F0A94D2F7898D9A8D7B
S1131BF0AB8DBC8D022C04C0B695A795979587959F
S1131C000A94D2F7082B192B2A2B3B2B09A31AA3CE
S1131C102BA33CA3898C9A8CAB8CBC8C032C04C066
S1131C20880C991CAA1CBB1C0A94D2F7898E9A8E24
S1131C30AB8EBC8E4B01AA24BB24607070704DA780
S1131C405EA76FA778AB6DA17EA18FA198A5A50112
S1131C5094010E94D21729013A016B017C016DA104
S1131C607EA18FA198A5A50194010E94D217C3015A
S1131C70B2012DA53EA54FA558A90E94B317DC01BA
S1131C80CB017601DD24CC2409A11AA12BA13CA10E
S1131C90A90166277727C42AD52AE62AF72AC8166F
S1131CA0D906EA06FB0678F593018201015010403B
S1131CB0204030400DA31EA32FA338A70D8D1E8DE9
S1131CC02F8D38A1C00ED11EE21EF31EC016D10600
S1131CD0E206F306E0F0C816D906EA06FB06B8F4F5
S1131CE09301820102501040204030400DA31EA3F6
S1131CF02FA338A70D8D1E8D2F8D38A1C00ED11E98
S1131D00E21EF31E04C04DA25EA26FA278A6C81AFA
S1131D10D90AEA0AFB0AC701B601A50194010E9487
S1131D20D21729013A0169AB7AAB8BAB9CABC701E3
S1131D30B601A50194010E94D217C301B2012DA5D9
S1131D403EA54FA558A90E94B3178B019C0189A8F1
S1131D509AA8ABA8BCA8B4015527442789A19AA185
S1131D60ABA1BCA1A070B070482B592B6A2B7B2B64
S1131D70D301C2014017510762077307F0F40197BA
S1131D80A109B109AD8CBE8CCF8CD8A04A0D5B1DC6
S1131D906C1D7D1D4A155B056C057D0570F04017B3
S1131DA051076207730748F4D301C2010297A109DE
S1131DB0B1094A0D5B1D6C1D7D1D6A017B01C01AB2
S1131DC0D10AE20AF30AC9A2DAA2EBA2FCA2EDA0AC
S1131DD0FEA00FA118A5B70155274427482B592B5E
S1131DE06A2B7B2BFFEFCF2EFFEFDF2EE12CF12CA4
S1131DF0C422D522E622F7222B016624772489A463
S1131E009AA4ABA4BCA40FEF1FEF20E030E0802223
S1131E109122A222B32229A53AA54BA55CA58A0149
S1131E20222733270DA31EA32FA338A7C701B6016A
S1131E30A50194010E94B3176DA77EA78FA798AB45
S1131E40C701B6012DA13EA14FA158A50E94B31709
S1131E506B017C01C301B201A50194010E94B31777
S1131E604B015C01C301B2012DA13EA14FA158A5B4
S1131E700E94B317AB01BC01C80CD91CEA1CFB1CA3
S1131E800DA51EA52FA538A9C901AA27BB27C80ED1
S1131E90D91EEA1EFB1EC814D904EA04FB0420F46C
S1131EA0405050406F4F7F4FC701AA27BB27840F74
S1131EB0951FA61FB71F7601DD24CC244DA55EA572
S1131EC06FA578A960707070C40ED51EE61EF71E4B
S1131ED089A09AA0ABA0BCA088169906AA06BB0646
S1131EE070F088159905AA05BB0599F5098D1A8D19
S1131EF02B8D3C8D0C151D052E053F0550F5B701A6
S1131F00A60189A49AA4ABA4BCA4481959096A09D6
S1131F107B098C019D018D8C9E8CAF8CB8A0081917
S1131F2019092A093B0981E090E0A0E0B0E0C41659
S1131F30D506E606F70618F080E090E0DC015801CB
S1131F406901A81AB90ACA0ADB0AD601C5016A01DD
S1131F507B01898C9A8CAB8CBC8C8C189D08AE0848
S1131F60BF0849A15AA16BA17CA1481B590B6A0B5C
S1131F707B0B81E090E0A0E0B0E0C98CDA8CEB8CC4
S1131F80FC8CC814D904EA04FB0418F080E090E047
S1131F90DC01481B590B6A0B7B0B8A019B0104C0B3
S1131FA0000F111F221F331F2A94D2F7032C04C0E1
S1131FB0B694A794979487940A94D2F70829192978
S1131FC02A293B2909831A832B833C836A017B01D9
S1131FD004C0F694E794D794C7943A94D2F7CD8288
S1131FE0DE82EF82F886202F3A814B815C816C2D52
S1131FF07E818F819885E496E2E10C941018CF934A
S1132000DF93CDB7DEB760970FB6F894DEBF0FBE8F
S1132010CDBF0E94750384E40E94C9021886198604
S11320201A861B861C861D861E861F869E012F5FB0
S11320303F4F3F832E8319821A821B821C821D828A
S11320408E010A5F1F4F84E40E94E402982EC82E7A
S1132050DD243FEFC316D104B1F34BE2C416D1041F
S113206061F05DE2C516D10441F06FE2C616D104F9
S113207021F07AE2C716D10411F4988A14C00E94A0
S1132080D403892D8053D8018E938D01EE81FF8175
S1132090AE17BF0741F0F1E4CF16D10421F02DE3D0
S11320A0C216D10481F66B818D8190E0A0E1B7E284
S11320B08A9FA0018B9F500D9A9F500D11242C8153
S11320C030E0E8EEF3E02E9FC0012F9F900D3E9F7D
S11320D0900D1124480F591F8A8190E09C01220F12
S11320E0331F13E0880F991F1A95E1F7280F391F42
S11320F0F4E66F9FC0011124280F391F420F531FAC
S11321008981480F511D4A01AA2497FCA094BA2C36
S1132110888905C084E40E94E402C82EDD242BE2F1
S1132120C216D104A9F03DE2C316D10489F04FE2EE
S1132130C416D10469F05AE2C516D10449F061E429
S1132140C616D10451F07DE3C716D10419F705C0B2
S1132150888B8C2D0E94D40301C0888B19821A822B
S11321601B821C821D8204E0702E34C084E40E9411
S1132170E402682E082F10E00F3F1105B9F368013F
S11321800B32110549F00D32110531F00F321105F2
S113219019F00A32110539F4862D0E94D4038824DB
S11321A09924540116C001341105F1F00D331105C1
S11321B0D9F00E94D403E72DFF27E7FDF09581E0D5
S11321C090E08C0F9D1FE80FF91F862D80538083AC
S11321D07A9468019DE3C916D10431F0A1E4CA16CA
S11321E0D10411F077FEC2CF0D811C817A806B80FF
S11321F0598005C084E40E94E402C82EDD24BDE3B6
S1132200CB16D10429F0E1E4CE16D10499F7A8C67F
S113221081149104A104B104C1F1802F90E020E164
S113222037E2829F6001839FD00C929FD00C1124CF
S1132230212F30E048EE53E0249FC001259F900DEC
S1132240349F900D1124C80ED91E272D30E0C901EA
S1132250880F991F13E0220F331F1A95E1F7820F9D
S1132260931F562D64E6569F90011124820F931FED
S1132270C80ED91EC50CD11CEE24D7FCE094FE2C4C
S1132280C114D104E104F10481F40E94F70380E64F
S113229090E00E94EB038FE799EAA3E0815090401D
S11322A0A040E1F700C000005BC68DE30E94D403A8
S11322B098899B3259F09C3218F49A32E1F512C095
S11322C0A889AD3241F0AF32B1F522C0C80CD91C97
S11322D0EA1CFB1C0FC08C189D08AE08BF08B50192
S11322E0A4011EC0C501B401A70196010E94B31741
S11322F06B017C01A701960160E070E0CB01C88608
S113230039874A875B876C877D878E879F8713C051
S1132310C501B401A70196010E94D217BA01A9010F
S113232080E090E0DC01488759876A877B878C8747
S11323309D87AE87BF87F88529852A5C31E059855A
S1132340251708F030E08A858B5991E06A85861755
S113235008F090E0380F41E0381708F040E0942B83
S11323605B855C5381E07B85571708F080E0492F3B
S1132370450F91E0451708F090E0892B6C8561507A
S113238091E0AC856A1708F090E0582F560F81E071
S1132390561708F080E0982B6D85615081E0BD856B
S11323A06B1708F080E0960F71E0961708F070E064
S11323B0872B7E857150E1E06E85761708F0E0E0AA
S11323C0870F61E0871708F060E06E2B7F857150FE
S11323D0670F09F05DC0882309F05AC0992309F0FA
S11323E057C0533008F054C0523091F4493108F0CA
S11323F04FC0483169F4323708F04AC0313741F4EC
S11324002B3108F045C02A3119F4FF2309F040C0EC
S1132410288539854A855B856C857D858E859F8574
S1132420AA24FAECBF2EAAE9CA2EBBE3DB2EEE24C3
S1132430FF2400E010E00E941C04822F805D0E94B3
S1132440D403288539854A855B856C857D858E8591
S11324509F850E94610A922E832E742E652E562E1D
S1132460472E382E292EE1EEBE2EF5EFCF2EA5E015
S1132470DA2E0E941C04822F805D0E94D403292D31
S1132480382D472D562D652D742D832D922D8CC0FE
S1132490F8852985215E31E07985271708F030E039
S11324A08A85865F91E0AA858A1708F090E0380F44
S11324B041E0381708F040E0942B5B85565081E0EA
S11324C0BB855B1708F080E0492F450F91E0451765
S11324D008F090E0892B5C85515091E0EC855E1703
S11324E008F090E0782F750F81E0751708F080E010
S11324F0982B5D85515081E06D85561708F080E07A
S1132500950F61E0951708F060E0862B6E856150A9
S1132510E1E0AE856A1708F0E0E0860F51E0861727
S113252008F050E05E2B6F856150560F09F0ECC047
S1132530882309F0E9C0992309F0E6C0772309F05C
S1132540E3C0463308F0E0C0453369F4353A08F097
S1132550DBC0343A41F42A3E08F0D6C0293E19F4CF
S1132560FF2309F0D1C0288539854A855B856C85B0
S11325707D858E859F85AA2411EEB12E05EFC02E90
S1132580E5E0DE2EEE24FF2400E010E00E941C04AF
S1132590822F805D0E94D403288539854A855B8516
S11325A06C857D858E859F850E94610A922E832E7F
S11325B0742E652E562E472E382E292EF0E8AF2E77
S11325C0A6E9BA2EB8E9CB2EDD240E941C04822F82
S11325D0805D0E94D403292D382D472D562D652D5D
S11325E0742D832D922D0E94610A922E832E742EB7
S11325F0652E562E472E382E292EA0E4AA2EB2E49C
S1132600BB2EEFE0CE2E0E941C04822F805D0E9420
S1132610D403292D382D472D562D652D742D832D4A
S1132620922D0E94610A922E832E742E652E562EB0
S1132630472E382E292EE0EAAE2EF6E8BF2ECC2403
S1132640C3940E941C04822F805D0E94D403292D10
S1132650382D472D562D652D742D832D922D0E94D6
S1132660610A922E832E742E652E562E472E382EF6
S1132670292EA0E1AA2EB7E2BB2ECC240E941C0472
S1132680822F805D0E94D403292D382D472D562D8D
S1132690652D742D832D922D0E94610A922E832E16
S11326A0742E652E562E472E382E292EE8EEAE2E89
S11326B0F3E0BF2E0E941C04822F805D0E94D4038D
S11326C0292D382D472D562D652D742D832D922DB2
S11326D00E94610A922E832E742E652E562E472E4A
S11326E0382E292EB4E6AB2EBB240E941C04822F64
S11326F0805D0E94D403292D382D472D562D652D3C
S1132700742D832D922D5FC37885705821E0B88590
S11327107B1708F020E09985975981E0E9859E1799
S113272008F080E0290F31E0291708F030E0832B0E
S11327304A85495991E0FA854F1708F090E0382FFF
S1132740340F81E0341708F080E0982B5B855150FA
S113275081E04B85541708F080E0492F450F91E044
S1132760451708F090E0892B5C85515091E06C8509
S1132770561708F090E0E82FE50F81E0E51708F020
S113278080E0982B5D85515081E0AD855A1708F0A3
S113279080E0950F61E0951708F060E0862B6E8568
S11327A06150F1E0BE856B1708F0F0E0860F51E050
S11327B0861708F050E05F2B6F856150560FB1F516
S11327C08823A1F5992391F5EE2381F5463070F520
S11327D0453051F43E3550F53D3531F42B3430F568
S11327E02A3411F4713810F5288539854A855B85BA
S11327F06C857D858E859F85E0E8AE2EF6E9BF2E3B
S1132800A8E9CA2EDD24EE24FF2400E010E00E9493
S11328101C04822F805D0E94D403288539854A8553
S11328205B856C857D858E859F85DDCE688560544E
S113283021E0E8856E1708F020E09985935481E043
S1132840F9859F1708F080E0290F31E0291708F077
S113285030E0832B4A85405191E03A85431708F0D4
S113286090E0382F340F81E0341708F080E0982B83
S11328704B85415081E05B85451708F080E0792F56
S1132880740F91E0741708F090E0892B4C85415047
S113289091E0AC854A1708F090E0E82FE40F81E05E
S11328A0E41708F080E0982B4D85415081E0BD8508
S11328B04B1708F080E0940F51E0941708F050E0B3
S11328C0852B5E855150F1E04E85541708F0F0E0F9
S11328D0850F41E0851708F040E04F2B5F8551508C
S11328E0450FA1F5882391F5992381F5EE2371F520
S11328F0772361F53A3850F5393831F4253530F518
S1132900243511F4603410F5288539854A855B85B2
S11329106C857D858E859F85B0E4AB2E12E4B12E47
S11329200FE0C02EDD24EE24FF2400E010E00E941E
S11329301C04822F805D0E94D403288539854A8532
S11329405B856C857D858E859F856BCE6885605A99
S113295021E05885651708F020E09985975881E0B3
S11329607985971708F080E0290F31E0291708F0DE
S113297030E0832B4A85425091E0AA854A1708F03B
S113298090E0382F340F81E0341708F080E0982B62
S11329904B85415081E0BB854B1708F080E0792FCF
S11329A0740F91E0741708F090E0892B4C85415026
S11329B091E0EC854E1708F090E0E82FE40F81E0F9
S11329C0E41708F080E0982B4D85415081E0FD85A7
S11329D04F1708F080E0940F51E0941708F050E08E
S11329E0852B5E855150F1E04E85541708F0F0E0D8
S11329F0850F41E0851708F040E04F2B5F8551506B
S1132A00450FA1F5882391F5992381F5EE2371F5FE
S1132A10772361F53E3050F53D3031F42C3B30F5F1
S1132A202B3B11F4603A10F5288539854A855B857E
S1132A306C857D858E859F85F0EAAF2EA6E8BA2E3B
S1132A40CC24C394DD24EE24FF2400E010E00E9493
S1132A501C04822F805D0E94D403288539854A8511
S1132A605B856C857D858E859F85F9CD68856051F4
S1132A7021E05885651708F020E09985985281E097
S1132A807985971708F080E0290F31E0291708F0BD
S1132A9030E0832B4A85415091E0AA854A1708F01B
S1132AA090E0382F340F81E0341708F080E0982B41
S1132AB04B85415081E0BB854B1708F080E0792FAE
S1132AC0740F91E0741708F090E0892B4C85415005
S1132AD091E0EC854E1708F090E0E82FE40F81E0D8
S1132AE0E41708F080E0982B4D85415081E0FD8586
S1132AF04F1708F080E0940F51E0941708F050E06D
S1132B00852B5E855150F1E04E85541708F0F0E0B6
S1132B10850F41E0851708F040E04F2B5F85515049
S1132B20450F99F5882389F5992379F5EE2369F5FD
S1132B30772359F5323048F5313031F4203628F511
S1132B402F3511F4603908F5288539854A855B8568
S1132B506C857D858E859F8500E1A02EE7E2BE2EE3
S1132B60CC24DD24EE24FF2400E010E00E941C04A9
S1132B70822F805D0E94D403288539854A855B8530
S1132B806C857D858E859F8587CD5885585E21E02F
S1132B906885561708F020E09985945081E079857E
S1132BA0971708F080E0290F31E0291708F030E08A
S1132BB0832B3A85315091E0AA853A1708F090E0CA
S1132BC0682F630F81E0631708F080E0982B3B8542
S1132BD0315081E0BB853B1708F080E0792F730FFB
S1132BE091E0731708F090E0892B3C85315091E017
S1132BF0EC853E1708F090E0E82FE30F81E0E3173F
S1132C0008F080E0982B3D85315081E0FD853F1729
S1132C1008F080E0930F41E0931708F040E0842B24
S1132C204E854150F1E03E85431708F0F0E0840FF3
S1132C3031E0841708F030E03F2B4F854150340FCA
S1132C4089F5882379F5992369F5EE2359F57723D6
S1132C5049F5662339F5243228F5233211F4583224
S1132C6008F5288539854A855B856C857D858E8543
S1132C709F85B8EEAB2E13E0B12ECC24DD24EE24D8
S1132C80FF2400E010E00E941C04822F805D0E945B
S1132C90D403288539854A855B856C857D858E8539
S1132CA09F8516CD5885545621E04885541708F061
S1132CB020E09985915081E06985961708F080E0BD
S1132CC0290F31E0291708F030E0832B3A85315081
S1132CD091E07A85371708F090E0682F630F81E060
S1132CE0631708F080E0982B3B85315081E0AB8579
S1132CF03A1708F080E0792F730F91E0731708F00A
S1132D0090E0892B3C85315091E0BC853B1708F05D
S1132D1090E0E82FE30F81E0E31708F080E0982BC0
S1132D203D85315081E0FD853F1708F080E0930F29
S1132D3041E0931708F040E0842B4E854150F1E0C8
S1132D403E85431708F0F0E0840F31E0841708F063
S1132D5030E03F2B4F854150340F09F04FC088239A
S1132D6009F04CC0992309F049C0EE2309F046C08C
S1132D70772309F043C0662309F040C02430F0F5FE
S1132D80233011F45438D0F5288539854A855B857C
S1132D906C857D858E859F85A4E6AA2EBB24CC24D4
S1132DA0DD24EE24FF2400E010E00E941C04822FA6
S1132DB0805D0E94D403288539854A855B856C85AE
S1132DC07D858E859F850E94610A922E832E742EA6
S1132DD0652E562E472E382E292EFAE0AF2E0E944D
S1132DE01C04822F805D0E94D403292D382D472D89
S1132DF0562D652D742D832D922D89C048854A50FA
S1132E0051E06885461708F050E09985915081E0BB
S1132E107985971708F080E0590F21E0591708F0D9
S1132E2020E0822B2A85215091E0AA852A1708F0F8
S1132E3090E0682F620F81E0621708F080E0982B21
S1132E402B85215081E0BB852B1708F080E0792F7A
S1132E50720F91E0721708F090E0892B2C852150B5
S1132E6091E0EC852E1708F090E0E82FE20F81E066
S1132E70E21708F080E0982B2D85215081E0FD8534
S1132E802F1708F080E0920F31E0921708F030E03D
S1132E90832B3E853150F1E02E85321708F0F0E0A7
S1132EA0830F21E0831708F020E02F2B3F8531505A
S1132EB0230F89F5882379F5992369F5EE2359F5CC
S1132EC0772349F5662339F5552329F54A3518F54D
S1132ED0288539854A855B856C857D858E859F85AA
S1132EE0EAE0AE2EBB24CC24DD24EE24FF2400E053
S1132EF010E00E941C04822F805D0E94D403288568
S1132F0039854A855B856C857D858E859F850E9484
S1132F10610A822F21C03F85332309F08CC84E8576
S1132F20442309F088C85D85552309F084C86C855D
S1132F30662309F080C87B85772309F07CC88A85DD
S1132F40882309F078C89985992309F074C8A8855D
S1132F50AA3008F070C88A2F805D0E94D4036BC821
S1132F600E94F70368C8629FD001739FF001829F9B
S1132F70E00DF11D649FE00DF11D929FF00D839F04
S1132F80F00D749FF00D659FF00D9927729FB00DA1
S1132F90E11DF91F639FB00DE11DF91FBD01CF01B4
S1132FA011240895A1E21A2EAA1BBB1BFD010DC01A
S1132FB0AA1FBB1FEE1FFF1FA217B307E407F507E5
S1132FC020F0A21BB30BE40BF50B661F771F881FC1
S1132FD0991F1A9469F760957095809590959B0157
S1132FE0AC01BD01CF0108952F923F924F925F92A1
S1132FF06F927F928F929F92AF92BF92CF92DF9205
S1133000EF92FF920F931F93CF93DF93CDB7DEB769
S1133010CA1BDB0B0FB6F894DEBF0FBECDBF0994FD
S11330202A88398848885F846E847D848C849B8454
S1133030AA84B984C884DF80EE80FD800C811B8162
S1133040AA81B981CE0FD11D0FB6F894DEBF0FBE91
S10D3050CDBFED010895F894FFCF01
S113305A53796E746178094572726F722100373838
S113306A392F3435362A3132332D41303D2B000184
S113307A0202030303030404040404040404050508
S113308A05050505050505050505050505050606E0
S113309A06060606060606060606060606060606C2
S11330AA06060606060606060606060606060707B0
S11330BA0707070707070707070707070707070792
S11330CA0707070707070707070707070707070782
S11330DA0707070707070707070707070707070772
S11330EA0707070707070707070707070707080860
S11330FA0808080808080808080808080808080842
S113310A0808080808080808080808080808080831
S113311A0808080808080808080808080808080821
S113312A0808080808080808080808080808080811
S113313A0808080808080808080808080808080801
S113314A08080808080808080808080808080808F1
S113315A08080808080808080808080808080808E1
S111316A0808080808080808080808080808E3
S9030000FC
