S00D00004C616230312E73726563A7
S11300000C942A000C9447000C9447000C9447006D
S11300100C9447000C9447000C9447000C94470040
S11300200C9447000C9447000C9447000C94470030
S11300300C9447000C9447000C9447000C94470020
S11300400C9447000C9447000C9447000C94470010
S11300500C94470011241FBECFE5D8E0DEBFCDBF0E
S113006011E0A0E6B0E0E0ECFEE002C005900D92E5
S1130070A431B107D9F711E0A4E1B1E001C01D92A8
S1130080A431B107E1F70E9415040C945E070C94A7
S11300900000843409F471C0853448F4823499F141
S11300A0833408F04DC0813409F083C00FC0823618
S11300B051F1833620F4813609F07BC007C08336C2
S11300C009F43EC0843609F074C057C0413069F465
S11300D02AB381E090E0AC0102C0440F551F6A9539
S11300E0E2F7BA01622B6ABB08952AB381E090E07B
S11300F0AC0102C0440F551F6A95E2F7BA0160953E
S113010062236ABB0895413069F427B381E090E02B
S1130110AC0102C0440F551F6A95E2F7BA01622B85
S113012067BB089527B381E090E0AC0102C0440F9F
S1130130551F6A95E2F7BA016095622367BB08957B
S1130140413069F424B381E090E0AC0102C0440F73
S1130150551F6A95E2F7BA01622B64BB089524B374
S113016081E090E0AC0102C0440F551F6A95E2F7AC
S1130170BA016095622364BB0895413069F421B3E8
S113018081E090E0AC0102C0440F551F6A95E2F78C
S1130190BA01622B61BB089521B381E090E0AC0108
S11301A002C0440F551F6A95E2F7BA0160956223B5
S11301B061BB0895843409F471C0853448F48234F1
S11301C099F1833408F04DC0813409F083C00FC025
S11301D0823651F1833620F4813609F07BC007C0A2
S11301E0833609F43EC0843609F074C057C04130E8
S11301F069F42BB381E090E0AC0102C0440F551FB9
S11302006A95E2F7BA01622B6BBB08952BB381E0C8
S113021090E0AC0102C0440F551F6A95E2F7BA01A1
S1130220609562236BBB0895413069F428B381E083
S113023090E0AC0102C0440F551F6A95E2F7BA0181
S1130240622B68BB089528B381E090E0AC0102C042
S1130250440F551F6A95E2F7BA016095622368BBA3
S11302600895413069F425B381E090E0AC0102C007
S1130270440F551F6A95E2F7BA01622B65BB0895D6
S113028025B381E090E0AC0102C0440F551F6A958C
S1130290E2F7BA016095622365BB0895413069F4C1
S11302A022B381E090E0AC0102C0440F551F6A956F
S11302B0E2F7BA01622B62BB089522B381E090E0B9
S11302C0AC0102C0440F551F6A95E2F7BA0160956C
S11302D0622362BB0895843409F43DC0853440F43C
S11302E08234F9F0833450F5813409F040C00CC0F5
S11302F08236B9F0833618F48136C9F505C08336E1
S1130300E9F08436A1F527C02BB381E090E0AC017D
S113031002C0440F551F6A95E2F7BA0162276BBB0E
S1130320089528B381E090E0AC0102C0440F551F4A
S11303306A95E2F7BA01622768BB089525B381E0A4
S113034090E0AC0102C0440F551F6A95E2F7BA0170
S1130350622765BB089522B381E090E0AC0102C03E
S1130360440F551F6A95E2F7BA01622762BB0895EC
S1130370843409F44EC0853440F4823431F183343A
S1130380B0F5813409F057C00EC08236F1F08336DF
S113039020F4813609F04FC006C0833641F184361B
S11303A009F049C036C029B381E090E0062E02C0AE
S11303B0880F991F0A94E2F730E08223932302C046
S11303C0959587956A95E2F7089526B381E090E0C4
S11303D0062E02C0880F991F0A94E2F730E08223A8
S11303E0932302C0959587956A95E2F7089523B300
S11303F081E090E0062E02C0880F991F0A94E2F76C
S113040030E08223932302C0959587956A95E2F79D
S1130410089520B381E090E0062E02C0880F991F52
S11304200A94E2F730E08223932302C095958795DE
S11304306A95E2F7089580E008958434D9F085340C
S113044038F4823499F0833498F48134A1F40CC0E4
S1130450823661F0833618F4813669F405C0833638
S113046039F0843641F406C06ABB089567BB089529
S113047064BB089561BB08958434D9F0853438F49D
S1130480823499F0833498F48134A1F40CC0823618
S113049061F0833618F4813669F405C0833639F087
S11304A0843641F406C06BBB089568BB089565BBF0
S11304B0089562BB08958434D9F0853438F48234C5
S11304C099F0833498F48134A9F40CC0823661F035
S11304D0833618F4813671F405C0833639F08436D6
S11304E049F406C089B3089586B3089583B3089583
S11304F080B3089580E00895843409F1853438F494
S11305008234A9F08334B8F48134E1F40CC0823627
S113051071F0833618F48136A9F405C0833659F096
S1130520843681F40CC08BB380958BBB089588B35B
S1130530809588BB089585B3809585BB089582B363
S1130540809582BB0895843409F471C0853448F4DD
S1130550823499F1833408F04DC0813409F083C0AA
S11305600FC0823651F1833620F4813609F07BC006
S113057007C0833609F43EC0843609F074C057C0FE
S1130580413069F42BB381E090E0AC0102C0440F28
S1130590551F6A95E2F7BA01622B6BBB08952BB322
S11305A081E090E0AC0102C0440F551F6A95E2F768
S11305B0BA01609562236BBB0895413069F428B396
S11305C081E090E0AC0102C0440F551F6A95E2F748
S11305D0BA01622B68BB089528B381E090E0AC01B6
S11305E002C0440F551F6A95E2F7BA016095622371
S11305F068BB0895413069F425B381E090E0AC0113
S113060002C0440F551F6A95E2F7BA01622B65BB1D
S1130610089525B381E090E0AC0102C0440F551F5A
S11306206A95E2F7BA016095622365BB089541308B
S113063069F422B381E090E0AC0102C0440F551F7D
S11306406A95E2F7BA01622B62BB089522B381E096
S113065090E0AC0102C0440F551F6A95E2F7BA015D
S11306606095622362BB08956F70843451F18534C0
S113067038F48234C1F08334E8F4813441F50CC099
S1130680823689F0833618F4813609F505C083363D
S113069089F08436E1F415C08BB3807F8BBB8BB3B8
S11306A0682B6BBB089588B3807F88BB88B3682BA5
S11306B068BB089585B3807F85BB85B3682B65BB14
S11306C0089582B3807F82BB82B3682B62BB089596
S11306D06295607F843451F1853438F48234C1F0FA
S11306E08334E8F4813441F50CC0823689F08336D2
S11306F018F4813609F505C0833689F08436E1F4AF
S113070015C08BB38F708BBB8BB3682B6BBB0895F9
S113071088B38F7088BB88B3682B68BB089585B392
S11307208F7085BB85B3682B65BB089582B38F70CA
S113073082BB82B3682B62BB0895CF93C82F6FE04E
S11307400E941D028C2F64E041E00E94A3028C2FC2
S113075065E041E00E94A3028C2F66E041E00E9424
S1130760A3028C2F67E041E00E94A302CF91089579
S1130770CF92DF92FF920F931F93CF93DF93CDB766
S1130780DEB760970FB6F894DEBF0FBECDBFF82E6C
S1130790DE011196E0E6F0E080E101900D928150D7
S11307A0E1F7CC24DD248F2D6FE00E9434038F2DDC
S11307B06C2D40E00E94DA0010E0012F0C5F8F2DB9
S11307C0602F0E94B8018823B9F48F2D602F0E94F6
S11307D0B8018823D1F3F601EE0FFF1FEE0FFF1FC0
S11307E0E10FF11D81E090E08C0F9D1FE80FF91FD0
S11307F080818F3F21F00BC01F5F1430F1F6089405
S1130800C11CD11C94E0C916D10469F68FEF60961F
S11308100FB6F894DEBF0FBECDBFDF91CF911F910D
S11308200F91FF90DF90CF90089584E40E94E30538
S11308300E94370583E40E949D0384E60E94170604
S113084010E001E00F2EF5E8EF2EF0E0FF2EF02D82
S11308500F2EF4E9CF2EF0E0DF2EF02D0F2EF8EA64
S1130860AF2EF0E0BF2EF02D0F2EF0EE4F2EF0E065
S11308705F2EF02D0F2EF7EF2F2EF0E03F2EF02DF0
S11308800F2EFAEB8F2EF0E09F2EF02D0F2EF3EDAE
S11308906F2EF0E07F2EF02D11C00E94BC0580E782
S11308A090E00E94AD0583E40E94B8038F3FD9F322
S11308B0813421F484E40E94F005102F112369F39C
S11308C00E94BC05C7010E94AD05802F64E10E940F
S11308D0C605C6010E94AD0582E0602F0E94C605D0
S11308E0C5010E94AD05113049F783E40E94B803A5
S11308F08F3FD9F3813309F047C00E94BC05C4017E
S11309000E94AD0582E0602F0E94C605C3010E94CB
S1130910AD05802F69E10E94C60583E40E94B803F7
S1130920C82F8F3FD1F30E949605C05383E40E94E1
S1130930B803D82F8F3FD1F38D3379F00E949605F9
S113094083E40E94B8038D33D9F7CC0F8C2F880F22
S1130950880F8C0F80538D0F01C08C2F0E941706B7
S11309600E94BC05C7010E94AD05802F64E10E946E
S1130970C605C6010E94AD0582E0602F0E94C6052F
S1130980C5010E94AD053BC0823391F584E40E9409
S11309900A060E94BC05C2010E94AD0582E0602FD8
S11309A00E94C605C1010E94AD0583E40E94B803FC
S11309B0803319F08133C9F704C084E40E94F00540
S11309C003C084E40E94FD050E94BC05C7010E9487
S11309D0AD05802F64E10E94C605C6010E94AD05E5
S11309E082E0602F0E94C605C5010E94AD0507C0C4
S11309F0833329F484E40E940A0610E05FCF1130A7
S1130A0009F473CF5BCF82E460E041E00E94DA0036
S1130A108FE99FE00197F1F700C0000082E460E0F5
S1130A2040E00E94DA008FE99FE00197F1F700C0EF
S1130A3000000895CF93C82F82E461E040E00E9453
S1130A40DA006C2F62956F7081E40E9468030E9443
S1130A50030581E46C2F0E9468030E9403058FEC58
S1130A6097E00197F1F700C00000CF9108958FEF50
S1130A7091EEA4E081509040A040E1F700C0000056
S1130A8081E464E041E00E94490081E465E041E0E2
S1130A900E94490081E466E041E00E94490081E44B
S1130AA067E041E00E94490082E460E041E00E9486
S1130AB0490082E461E041E00E94490082E462E08E
S1130AC041E00E94490082E462E040E00E94DA00D2
S1130AD082E00E941A05AFE1BEE41197F1F700C06D
S1130AE0000088E20E941A058FEC97E00197F1F765
S1130AF000C000008EE00E941A05AFECB7E0119729
S1130B00F1F700C0000081E00E941A058FE19EE425
S1130B100197F1F700C0000086E00E941A05AFECCF
S1130B20B7E01197F1F700C000000895CF93C82FE4
S1130B3082E461E041E00E94DA006C2F62956F70FC
S1130B4081E40E9468030E94030581E46C2F0E94E3
S1130B5068030E940305CF910895CF93DF93EC01BE
S1130B608881882331F021960E94960589918823F3
S1130B70D9F7DF91CF91089581E00E941A058FE1A2
S1130B809EE40197F1F700C000000895982F91505A
S1130B90923068F4693258F4662349F0813019F4CC
S1130BA0862F815802C0862F81540E941A05089509
S1130BB0803420F080E80E941A05089580648F77BD
S1130BC00E941A050895CF93C82F60E041E00E9467
S1130BD049008C2F61E041E00E944900CF910895C3
S1130BE0CF93C82F60E041E00E94DA008C2F61E0CF
S1130BF040E00E94DA00CF910895CF93C82F60E0BF
S1130C0040E00E94DA008C2F61E041E00E94DA00AB
S1130C10CF910895CF93C82F60E040E00E94DA009E
S1130C208C2F61E040E00E94DA00CF910895BB9AD6
S1130C3093B7916093BF93B7946093BF93B7906455
S1130C4093BF93B7906193BF93B7906293BF64E6E9
S1130C5070E0681B7109882777FD8095982F0E94A2
S1130C606F062AE037ED43E25CE30E94D30620E0FE
S1130C7030E04FE753E40E94D3060E9441066CBF64
S1130C80089570D088F09F5790F0B92F9927B751E5
S1130C90A0F0D1F0660F771F881F991F1AF0BA953C
S1130CA0C9F712C0B13081F077D0B1E0089574C0B3
S1130CB0672F782F8827B85F39F0B93FCCF3869532
S1130CC077956795B395D9F73EF49095809570958F
S1130CD061957F4F8F4F9F4F0895E89409C097FB0C
S1130CE03EF490958095709561957F4F8F4F9F4FFF
S1130CF09923A9F0F92F96E9BB279395F695879543
S1130D0077956795B795F111F8CFFAF4BB0F11F405
S1130D1060FF1BC06F5F7F4F8F4F9F4F16C08823AC
S1130D2011F096E911C0772321F09EE8872F762FE2
S1130D3005C0662371F096E8862F70E060E02AF023
S1130D409A95660F771F881FDAF7880F969587950F
S1130D5097F9089557FD9058440F551F59F05F3F78
S1130D6071F04795880F97FB991F61F09F3F79F0C9
S1130D7087950895121613061406551FF2CF46954B
S1130D80F1DF08C0161617061806991FF1CF8695CD
S1130D907105610508940895E894BB2766277727B1
S1130DA0CB0197F908950BD078C069D028F06ED0A4
S1130DB018F0952309F05AC05FC01124EECFCADFA2
S1130DC0A0F3959FD1F3950F50E0551F629FF0015A
S1130DD0729FBB27F00DB11D639FAA27F00DB11DB3
S1130DE0AA1F649F6627B00DA11D661F829F22273C
S1130DF0B00DA11D621F739FB00DA11D621F839FC3
S1130E00A00D611D221F749F3327A00D611D231F98
S1130E10849F600D211D822F762F6A2F11249F57E6
S1130E2050408AF0E1F088234AF0EE0FFF1FBB1F09
S1130E30661F771F881F91505040A9F79E3F5105A8
S1130E4070F014C0AACF5F3FECF3983EDCF38695B4
S1130E5077956795B795F795E7959F5FC1F7FE2B53
S1130E60880F911D9695879597F9089597F99F672F
S1130E7080E870E060E008959FEF80EC089500241E
S1130E800A941616170618060906089500240A94EB
S1130E9012161306140605060895092E0394000C71
S1130EA011F4882352F0BB0F40F4BF2B11F460FF00
S1130EB004C06F5F7F4F8F4F9F4F0895F894FFCF0B
S1130EC03738392F3435362A3132332B41303D2DE2
S1130ED0506C65617365205475726E204D6F746F2C
S1130EE072204F6E00313A2052657365742053703E
S1130EF065656400323A204368616E676520446921
S1130F0072656374696F6E00333A205475726E2093
S1130F104F6666204D6F746F7200506C6561736527
S1130F2020456E7465722044757479204379636C2E
S1130F30653A0052616E67652030202D20393900F2
S1130F4053657420446972636574696F6E204F66DB
S1130F50204D6F746F7200302D436C6F636B776933
S1130F60736520312D416E74692D436C6F636B770B
S1070F706973650038
S9030000FC
